{
	"data": {
		"bytecode": {
			"linkReferences": {},
			"object": "608060405234801562000010575f80fd5b50604051620020ae380380620020ae8339818101604052810190620000369190620002e4565b6040518060400160405280600a81526020017f436f666665546f6b656e000000000000000000000000000000000000000000008152506040518060400160405280600381526020017f43464500000000000000000000000000000000000000000000000000000000008152508160039081620000b391906200058d565b508060049081620000c591906200058d565b505050620000dc5f801b836200011860201b60201c565b506200010f7f9f2df0fed2c77648de5860a4cc508cd0818c85b8b8a1ab4ceeef8d981c8956a6826200011860201b60201c565b50505062000671565b5f6200012b83836200021460201b60201c565b6200020a57600160055f8581526020019081526020015f205f015f8473ffffffffffffffffffffffffffffffffffffffff1673ffffffffffffffffffffffffffffffffffffffff1681526020019081526020015f205f6101000a81548160ff021916908315150217905550620001a66200027860201b60201c565b73ffffffffffffffffffffffffffffffffffffffff168273ffffffffffffffffffffffffffffffffffffffff16847f2f8788117e7eff1d82e926ec794901d17c78024a50270940304540a733656f0d60405160405180910390a4600190506200020e565b5f90505b92915050565b5f60055f8481526020019081526020015f205f015f8373ffffffffffffffffffffffffffffffffffffffff1673ffffffffffffffffffffffffffffffffffffffff1681526020019081526020015f205f9054906101000a900460ff16905092915050565b5f33905090565b5f80fd5b5f73ffffffffffffffffffffffffffffffffffffffff82169050919050565b5f620002ae8262000283565b9050919050565b620002c081620002a2565b8114620002cb575f80fd5b50565b5f81519050620002de81620002b5565b92915050565b5f8060408385031215620002fd57620002fc6200027f565b5b5f6200030c85828601620002ce565b92505060206200031f85828601620002ce565b9150509250929050565b5f81519050919050565b7f4e487b71000000000000000000000000000000000000000000000000000000005f52604160045260245ffd5b7f4e487b71000000000000000000000000000000000000000000000000000000005f52602260045260245ffd5b5f6002820490506001821680620003a557607f821691505b602082108103620003bb57620003ba62000360565b5b50919050565b5f819050815f5260205f209050919050565b5f6020601f8301049050919050565b5f82821b905092915050565b5f600883026200041f7fffffffffffffffffffffffffffffffffffffffffffffffffffffffffffffffff82620003e2565b6200042b8683620003e2565b95508019841693508086168417925050509392505050565b5f819050919050565b5f819050919050565b5f620004756200046f620004698462000443565b6200044c565b62000443565b9050919050565b5f819050919050565b620004908362000455565b620004a86200049f826200047c565b848454620003ee565b825550505050565b5f90565b620004be620004b0565b620004cb81848462000485565b505050565b5b81811015620004f257620004e65f82620004b4565b600181019050620004d1565b5050565b601f82111562000541576200050b81620003c1565b6200051684620003d3565b8101602085101562000526578190505b6200053e6200053585620003d3565b830182620004d0565b50505b505050565b5f82821c905092915050565b5f620005635f198460080262000546565b1980831691505092915050565b5f6200057d838362000552565b9150826002028217905092915050565b620005988262000329565b67ffffffffffffffff811115620005b457620005b362000333565b5b620005c082546200038d565b620005cd828285620004f6565b5f60209050601f83116001811462000603575f8415620005ee578287015190505b620005fa858262000570565b86555062000669565b601f1984166200061386620003c1565b5f5b828110156200063c5784890151825560018201915060208501945060208101905062000615565b868310156200065c578489015162000658601f89168262000552565b8355505b6001600288020188555050505b505050505050565b611a2f806200067f5f395ff3fe608060405234801561000f575f80fd5b506004361061012a575f3560e01c806340c10f19116100ab578063a217fddf1161006f578063a217fddf14610340578063a9059cbb1461035e578063d53913931461038e578063d547741f146103ac578063dd62ed3e146103c85761012a565b806340c10f191461028a57806370a08231146102a6578063779eb56b146102d657806391d14854146102f257806395d89b41146103225761012a565b8063248a9ca3116100f2578063248a9ca3146101fa5780632f2ff15d1461022a578063313ce5671461024657806336568abe146102645780633fb1338c146102805761012a565b806301ffc9a71461012e57806306fdde031461015e578063095ea7b31461017c57806318160ddd146101ac57806323b872dd146101ca575b5f80fd5b61014860048036038101906101439190611352565b6103f8565b6040516101559190611397565b60405180910390f35b610166610471565b604051610173919061143a565b60405180910390f35b610196600480360381019061019191906114e7565b610501565b6040516101a39190611397565b60405180910390f35b6101b4610523565b6040516101c19190611534565b60405180910390f35b6101e460048036038101906101df919061154d565b61052c565b6040516101f19190611397565b60405180910390f35b610214600480360381019061020f91906115d0565b61055a565b604051610221919061160a565b60405180910390f35b610244600480360381019061023f9190611623565b610577565b005b61024e610599565b60405161025b919061167c565b60405180910390f35b61027e60048036038101906102799190611623565b6105a1565b005b61028861061c565b005b6102a4600480360381019061029f91906114e7565b6106b6565b005b6102c060048036038101906102bb9190611695565b61070d565b6040516102cd9190611534565b60405180910390f35b6102f060048036038101906102eb9190611695565b610752565b005b61030c60048036038101906103079190611623565b6107f2565b6040516103199190611397565b60405180910390f35b61032a610856565b604051610337919061143a565b60405180910390f35b6103486108e6565b604051610355919061160a565b60405180910390f35b610378600480360381019061037391906114e7565b6108ec565b6040516103859190611397565b60405180910390f35b61039661090e565b6040516103a3919061160a565b60405180910390f35b6103c660048036038101906103c19190611623565b610932565b005b6103e260048036038101906103dd91906116c0565b610954565b6040516103ef9190611534565b60405180910390f35b5f7f7965db0b000000000000000000000000000000000000000000000000000000007bffffffffffffffffffffffffffffffffffffffffffffffffffffffff1916827bffffffffffffffffffffffffffffffffffffffffffffffffffffffff1916148061046a5750610469826109d6565b5b9050919050565b6060600380546104809061172b565b80601f01602080910402602001604051908101604052809291908181526020018280546104ac9061172b565b80156104f75780601f106104ce576101008083540402835291602001916104f7565b820191905f5260205f20905b8154815290600101906020018083116104da57829003601f168201915b5050505050905090565b5f8061050b610a3f565b9050610518818585610a46565b600191505092915050565b5f600254905090565b5f80610536610a3f565b9050610543858285610a58565b61054e858585610aea565b60019150509392505050565b5f60055f8381526020019081526020015f20600101549050919050565b6105808261055a565b61058981610bda565b6105938383610bee565b50505050565b5f6012905090565b6105a9610a3f565b73ffffffffffffffffffffffffffffffffffffffff168173ffffffffffffffffffffffffffffffffffffffff161461060d576040517f6697b23200000000000000000000000000000000000000000000000000000000815260040160405180910390fd5b6106178282610cd8565b505050565b61064c610627610a3f565b61062f610599565b600a61063b91906118b7565b60016106479190611901565b610dc2565b610654610a3f565b73ffffffffffffffffffffffffffffffffffffffff16610672610a3f565b73ffffffffffffffffffffffffffffffffffffffff167fa5cabfd712192254dfc660878b70b961d3cd68145d6af3220fc291f1da53419160405160405180910390a3565b7f9f2df0fed2c77648de5860a4cc508cd0818c85b8b8a1ab4ceeef8d981c8956a66106e081610bda565b610708836106ec610599565b600a6106f891906118b7565b846107039190611901565b610e41565b505050565b5f805f8373ffffffffffffffffffffffffffffffffffffffff1673ffffffffffffffffffffffffffffffffffffffff1681526020019081526020015f20549050919050565b6107838161075e610a3f565b610766610599565b600a61077291906118b7565b600161077e9190611901565b610a58565b61078e816001610dc2565b8073ffffffffffffffffffffffffffffffffffffffff166107ad610a3f565b73ffffffffffffffffffffffffffffffffffffffff167fa5cabfd712192254dfc660878b70b961d3cd68145d6af3220fc291f1da53419160405160405180910390a350565b5f60055f8481526020019081526020015f205f015f8373ffffffffffffffffffffffffffffffffffffffff1673ffffffffffffffffffffffffffffffffffffffff1681526020019081526020015f205f9054906101000a900460ff16905092915050565b6060600480546108659061172b565b80601f01602080910402602001604051908101604052809291908181526020018280546108919061172b565b80156108dc5780601f106108b3576101008083540402835291602001916108dc565b820191905f5260205f20905b8154815290600101906020018083116108bf57829003601f168201915b5050505050905090565b5f801b81565b5f806108f6610a3f565b9050610903818585610aea565b600191505092915050565b7f9f2df0fed2c77648de5860a4cc508cd0818c85b8b8a1ab4ceeef8d981c8956a681565b61093b8261055a565b61094481610bda565b61094e8383610cd8565b50505050565b5f60015f8473ffffffffffffffffffffffffffffffffffffffff1673ffffffffffffffffffffffffffffffffffffffff1681526020019081526020015f205f8373ffffffffffffffffffffffffffffffffffffffff1673ffffffffffffffffffffffffffffffffffffffff1681526020019081526020015f2054905092915050565b5f7f01ffc9a7000000000000000000000000000000000000000000000000000000007bffffffffffffffffffffffffffffffffffffffffffffffffffffffff1916827bffffffffffffffffffffffffffffffffffffffffffffffffffffffff1916149050919050565b5f33905090565b610a538383836001610ec0565b505050565b5f610a638484610954565b90507fffffffffffffffffffffffffffffffffffffffffffffffffffffffffffffffff8114610ae45781811015610ad5578281836040517ffb8f41b2000000000000000000000000000000000000000000000000000000008152600401610acc93929190611951565b60405180910390fd5b610ae384848484035f610ec0565b5b50505050565b5f73ffffffffffffffffffffffffffffffffffffffff168373ffffffffffffffffffffffffffffffffffffffff1603610b5a575f6040517f96c6fd1e000000000000000000000000000000000000000000000000000000008152600401610b519190611986565b60405180910390fd5b5f73ffffffffffffffffffffffffffffffffffffffff168273ffffffffffffffffffffffffffffffffffffffff1603610bca575f6040517fec442f05000000000000000000000000000000000000000000000000000000008152600401610bc19190611986565b60405180910390fd5b610bd583838361108f565b505050565b610beb81610be6610a3f565b6112a8565b50565b5f610bf983836107f2565b610cce57600160055f8581526020019081526020015f205f015f8473ffffffffffffffffffffffffffffffffffffffff1673ffffffffffffffffffffffffffffffffffffffff1681526020019081526020015f205f6101000a81548160ff021916908315150217905550610c6b610a3f565b73ffffffffffffffffffffffffffffffffffffffff168273ffffffffffffffffffffffffffffffffffffffff16847f2f8788117e7eff1d82e926ec794901d17c78024a50270940304540a733656f0d60405160405180910390a460019050610cd2565b5f90505b92915050565b5f610ce383836107f2565b15610db8575f60055f8581526020019081526020015f205f015f8473ffffffffffffffffffffffffffffffffffffffff1673ffffffffffffffffffffffffffffffffffffffff1681526020019081526020015f205f6101000a81548160ff021916908315150217905550610d55610a3f565b73ffffffffffffffffffffffffffffffffffffffff168273ffffffffffffffffffffffffffffffffffffffff16847ff6391f5c32d9c69d2a47ea670b442974b53935d1edc7fd64eb21e047a839171b60405160405180910390a460019050610dbc565b5f90505b92915050565b5f73ffffffffffffffffffffffffffffffffffffffff168273ffffffffffffffffffffffffffffffffffffffff1603610e32575f6040517f96c6fd1e000000000000000000000000000000000000000000000000000000008152600401610e299190611986565b60405180910390fd5b610e3d825f8361108f565b5050565b5f73ffffffffffffffffffffffffffffffffffffffff168273ffffffffffffffffffffffffffffffffffffffff1603610eb1575f6040517fec442f05000000000000000000000000000000000000000000000000000000008152600401610ea89190611986565b60405180910390fd5b610ebc5f838361108f565b5050565b5f73ffffffffffffffffffffffffffffffffffffffff168473ffffffffffffffffffffffffffffffffffffffff1603610f30575f6040517fe602df05000000000000000000000000000000000000000000000000000000008152600401610f279190611986565b60405180910390fd5b5f73ffffffffffffffffffffffffffffffffffffffff168373ffffffffffffffffffffffffffffffffffffffff1603610fa0575f6040517f94280d62000000000000000000000000000000000000000000000000000000008152600401610f979190611986565b60405180910390fd5b8160015f8673ffffffffffffffffffffffffffffffffffffffff1673ffffffffffffffffffffffffffffffffffffffff1681526020019081526020015f205f8573ffffffffffffffffffffffffffffffffffffffff1673ffffffffffffffffffffffffffffffffffffffff1681526020019081526020015f20819055508015611089578273ffffffffffffffffffffffffffffffffffffffff168473ffffffffffffffffffffffffffffffffffffffff167f8c5be1e5ebec7d5bd14f71427d1e84f3dd0314c0f7b2291e5b200ac8c7c3b925846040516110809190611534565b60405180910390a35b50505050565b5f73ffffffffffffffffffffffffffffffffffffffff168373ffffffffffffffffffffffffffffffffffffffff16036110df578060025f8282546110d3919061199f565b925050819055506111ad565b5f805f8573ffffffffffffffffffffffffffffffffffffffff1673ffffffffffffffffffffffffffffffffffffffff1681526020019081526020015f2054905081811015611168578381836040517fe450d38c00000000000000000000000000000000000000000000000000000000815260040161115f93929190611951565b60405180910390fd5b8181035f808673ffffffffffffffffffffffffffffffffffffffff1673ffffffffffffffffffffffffffffffffffffffff1681526020019081526020015f2081905550505b5f73ffffffffffffffffffffffffffffffffffffffff168273ffffffffffffffffffffffffffffffffffffffff16036111f4578060025f828254039250508190555061123e565b805f808473ffffffffffffffffffffffffffffffffffffffff1673ffffffffffffffffffffffffffffffffffffffff1681526020019081526020015f205f82825401925050819055505b8173ffffffffffffffffffffffffffffffffffffffff168373ffffffffffffffffffffffffffffffffffffffff167fddf252ad1be2c89b69c2b068fc378daa952ba7f163c4a11628f55a4df523b3ef8360405161129b9190611534565b60405180910390a3505050565b6112b282826107f2565b6112f55780826040517fe2517d3f0000000000000000000000000000000000000000000000000000000081526004016112ec9291906119d2565b60405180910390fd5b5050565b5f80fd5b5f7fffffffff0000000000000000000000000000000000000000000000000000000082169050919050565b611331816112fd565b811461133b575f80fd5b50565b5f8135905061134c81611328565b92915050565b5f60208284031215611367576113666112f9565b5b5f6113748482850161133e565b91505092915050565b5f8115159050919050565b6113918161137d565b82525050565b5f6020820190506113aa5f830184611388565b92915050565b5f81519050919050565b5f82825260208201905092915050565b5f5b838110156113e75780820151818401526020810190506113cc565b5f8484015250505050565b5f601f19601f8301169050919050565b5f61140c826113b0565b61141681856113ba565b93506114268185602086016113ca565b61142f816113f2565b840191505092915050565b5f6020820190508181035f8301526114528184611402565b905092915050565b5f73ffffffffffffffffffffffffffffffffffffffff82169050919050565b5f6114838261145a565b9050919050565b61149381611479565b811461149d575f80fd5b50565b5f813590506114ae8161148a565b92915050565b5f819050919050565b6114c6816114b4565b81146114d0575f80fd5b50565b5f813590506114e1816114bd565b92915050565b5f80604083850312156114fd576114fc6112f9565b5b5f61150a858286016114a0565b925050602061151b858286016114d3565b9150509250929050565b61152e816114b4565b82525050565b5f6020820190506115475f830184611525565b92915050565b5f805f60608486031215611564576115636112f9565b5b5f611571868287016114a0565b9350506020611582868287016114a0565b9250506040611593868287016114d3565b9150509250925092565b5f819050919050565b6115af8161159d565b81146115b9575f80fd5b50565b5f813590506115ca816115a6565b92915050565b5f602082840312156115e5576115e46112f9565b5b5f6115f2848285016115bc565b91505092915050565b6116048161159d565b82525050565b5f60208201905061161d5f8301846115fb565b92915050565b5f8060408385031215611639576116386112f9565b5b5f611646858286016115bc565b9250506020611657858286016114a0565b9150509250929050565b5f60ff82169050919050565b61167681611661565b82525050565b5f60208201905061168f5f83018461166d565b92915050565b5f602082840312156116aa576116a96112f9565b5b5f6116b7848285016114a0565b91505092915050565b5f80604083850312156116d6576116d56112f9565b5b5f6116e3858286016114a0565b92505060206116f4858286016114a0565b9150509250929050565b7f4e487b71000000000000000000000000000000000000000000000000000000005f52602260045260245ffd5b5f600282049050600182168061174257607f821691505b602082108103611755576117546116fe565b5b50919050565b7f4e487b71000000000000000000000000000000000000000000000000000000005f52601160045260245ffd5b5f8160011c9050919050565b5f808291508390505b60018511156117dd578086048111156117b9576117b861175b565b5b60018516156117c85780820291505b80810290506117d685611788565b945061179d565b94509492505050565b5f826117f557600190506118b0565b81611802575f90506118b0565b8160018114611818576002811461182257611851565b60019150506118b0565b60ff8411156118345761183361175b565b5b8360020a91508482111561184b5761184a61175b565b5b506118b0565b5060208310610133831016604e8410600b84101617156118865782820a9050838111156118815761188061175b565b5b6118b0565b6118938484846001611794565b925090508184048111156118aa576118a961175b565b5b81810290505b9392505050565b5f6118c1826114b4565b91506118cc83611661565b92506118f97fffffffffffffffffffffffffffffffffffffffffffffffffffffffffffffffff84846117e6565b905092915050565b5f61190b826114b4565b9150611916836114b4565b9250828202611924816114b4565b9150828204841483151761193b5761193a61175b565b5b5092915050565b61194b81611479565b82525050565b5f6060820190506119645f830186611942565b6119716020830185611525565b61197e6040830184611525565b949350505050565b5f6020820190506119995f830184611942565b92915050565b5f6119a9826114b4565b91506119b4836114b4565b92508282019050808211156119cc576119cb61175b565b5b92915050565b5f6040820190506119e55f830185611942565b6119f260208301846115fb565b939250505056fea2646970667358221220e39997402a1a95659d6f4f7d411510f60f0848d3179b58cad9453c85209c3de164736f6c63430008140033",
			"opcodes": "PUSH1 0x80 PUSH1 0x40 MSTORE CALLVALUE DUP1 ISZERO PUSH3 0x10 JUMPI PUSH0 DUP1 REVERT JUMPDEST POP PUSH1 0x40 MLOAD PUSH3 0x20AE CODESIZE SUB DUP1 PUSH3 0x20AE DUP4 CODECOPY DUP2 DUP2 ADD PUSH1 0x40 MSTORE DUP2 ADD SWAP1 PUSH3 0x36 SWAP2 SWAP1 PUSH3 0x2E4 JUMP JUMPDEST PUSH1 0x40 MLOAD DUP1 PUSH1 0x40 ADD PUSH1 0x40 MSTORE DUP1 PUSH1 0xA DUP2 MSTORE PUSH1 0x20 ADD PUSH32 0x436F666665546F6B656E00000000000000000000000000000000000000000000 DUP2 MSTORE POP PUSH1 0x40 MLOAD DUP1 PUSH1 0x40 ADD PUSH1 0x40 MSTORE DUP1 PUSH1 0x3 DUP2 MSTORE PUSH1 0x20 ADD PUSH32 0x4346450000000000000000000000000000000000000000000000000000000000 DUP2 MSTORE POP DUP2 PUSH1 0x3 SWAP1 DUP2 PUSH3 0xB3 SWAP2 SWAP1 PUSH3 0x58D JUMP JUMPDEST POP DUP1 PUSH1 0x4 SWAP1 DUP2 PUSH3 0xC5 SWAP2 SWAP1 PUSH3 0x58D JUMP JUMPDEST POP POP POP PUSH3 0xDC PUSH0 DUP1 SHL DUP4 PUSH3 0x118 PUSH1 0x20 SHL PUSH1 0x20 SHR JUMP JUMPDEST POP PUSH3 0x10F PUSH32 0x9F2DF0FED2C77648DE5860A4CC508CD0818C85B8B8A1AB4CEEEF8D981C8956A6 DUP3 PUSH3 0x118 PUSH1 0x20 SHL PUSH1 0x20 SHR JUMP JUMPDEST POP POP POP PUSH3 0x671 JUMP JUMPDEST PUSH0 PUSH3 0x12B DUP4 DUP4 PUSH3 0x214 PUSH1 0x20 SHL PUSH1 0x20 SHR JUMP JUMPDEST PUSH3 0x20A JUMPI PUSH1 0x1 PUSH1 0x5 PUSH0 DUP6 DUP2 MSTORE PUSH1 0x20 ADD SWAP1 DUP2 MSTORE PUSH1 0x20 ADD PUSH0 KECCAK256 PUSH0 ADD PUSH0 DUP5 PUSH20 0xFFFFFFFFFFFFFFFFFFFFFFFFFFFFFFFFFFFFFFFF AND PUSH20 0xFFFFFFFFFFFFFFFFFFFFFFFFFFFFFFFFFFFFFFFF AND DUP2 MSTORE PUSH1 0x20 ADD SWAP1 DUP2 MSTORE PUSH1 0x20 ADD PUSH0 KECCAK256 PUSH0 PUSH2 0x100 EXP DUP2 SLOAD DUP2 PUSH1 0xFF MUL NOT AND SWAP1 DUP4 ISZERO ISZERO MUL OR SWAP1 SSTORE POP PUSH3 0x1A6 PUSH3 0x278 PUSH1 0x20 SHL PUSH1 0x20 SHR JUMP JUMPDEST PUSH20 0xFFFFFFFFFFFFFFFFFFFFFFFFFFFFFFFFFFFFFFFF AND DUP3 PUSH20 0xFFFFFFFFFFFFFFFFFFFFFFFFFFFFFFFFFFFFFFFF AND DUP5 PUSH32 0x2F8788117E7EFF1D82E926EC794901D17C78024A50270940304540A733656F0D PUSH1 0x40 MLOAD PUSH1 0x40 MLOAD DUP1 SWAP2 SUB SWAP1 LOG4 PUSH1 0x1 SWAP1 POP PUSH3 0x20E JUMP JUMPDEST PUSH0 SWAP1 POP JUMPDEST SWAP3 SWAP2 POP POP JUMP JUMPDEST PUSH0 PUSH1 0x5 PUSH0 DUP5 DUP2 MSTORE PUSH1 0x20 ADD SWAP1 DUP2 MSTORE PUSH1 0x20 ADD PUSH0 KECCAK256 PUSH0 ADD PUSH0 DUP4 PUSH20 0xFFFFFFFFFFFFFFFFFFFFFFFFFFFFFFFFFFFFFFFF AND PUSH20 0xFFFFFFFFFFFFFFFFFFFFFFFFFFFFFFFFFFFFFFFF AND DUP2 MSTORE PUSH1 0x20 ADD SWAP1 DUP2 MSTORE PUSH1 0x20 ADD PUSH0 KECCAK256 PUSH0 SWAP1 SLOAD SWAP1 PUSH2 0x100 EXP SWAP1 DIV PUSH1 0xFF AND SWAP1 POP SWAP3 SWAP2 POP POP JUMP JUMPDEST PUSH0 CALLER SWAP1 POP SWAP1 JUMP JUMPDEST PUSH0 DUP1 REVERT JUMPDEST PUSH0 PUSH20 0xFFFFFFFFFFFFFFFFFFFFFFFFFFFFFFFFFFFFFFFF DUP3 AND SWAP1 POP SWAP2 SWAP1 POP JUMP JUMPDEST PUSH0 PUSH3 0x2AE DUP3 PUSH3 0x283 JUMP JUMPDEST SWAP1 POP SWAP2 SWAP1 POP JUMP JUMPDEST PUSH3 0x2C0 DUP2 PUSH3 0x2A2 JUMP JUMPDEST DUP2 EQ PUSH3 0x2CB JUMPI PUSH0 DUP1 REVERT JUMPDEST POP JUMP JUMPDEST PUSH0 DUP2 MLOAD SWAP1 POP PUSH3 0x2DE DUP2 PUSH3 0x2B5 JUMP JUMPDEST SWAP3 SWAP2 POP POP JUMP JUMPDEST PUSH0 DUP1 PUSH1 0x40 DUP4 DUP6 SUB SLT ISZERO PUSH3 0x2FD JUMPI PUSH3 0x2FC PUSH3 0x27F JUMP JUMPDEST JUMPDEST PUSH0 PUSH3 0x30C DUP6 DUP3 DUP7 ADD PUSH3 0x2CE JUMP JUMPDEST SWAP3 POP POP PUSH1 0x20 PUSH3 0x31F DUP6 DUP3 DUP7 ADD PUSH3 0x2CE JUMP JUMPDEST SWAP2 POP POP SWAP3 POP SWAP3 SWAP1 POP JUMP JUMPDEST PUSH0 DUP2 MLOAD SWAP1 POP SWAP2 SWAP1 POP JUMP JUMPDEST PUSH32 0x4E487B7100000000000000000000000000000000000000000000000000000000 PUSH0 MSTORE PUSH1 0x41 PUSH1 0x4 MSTORE PUSH1 0x24 PUSH0 REVERT JUMPDEST PUSH32 0x4E487B7100000000000000000000000000000000000000000000000000000000 PUSH0 MSTORE PUSH1 0x22 PUSH1 0x4 MSTORE PUSH1 0x24 PUSH0 REVERT JUMPDEST PUSH0 PUSH1 0x2 DUP3 DIV SWAP1 POP PUSH1 0x1 DUP3 AND DUP1 PUSH3 0x3A5 JUMPI PUSH1 0x7F DUP3 AND SWAP2 POP JUMPDEST PUSH1 0x20 DUP3 LT DUP2 SUB PUSH3 0x3BB JUMPI PUSH3 0x3BA PUSH3 0x360 JUMP JUMPDEST JUMPDEST POP SWAP2 SWAP1 POP JUMP JUMPDEST PUSH0 DUP2 SWAP1 POP DUP2 PUSH0 MSTORE PUSH1 0x20 PUSH0 KECCAK256 SWAP1 POP SWAP2 SWAP1 POP JUMP JUMPDEST PUSH0 PUSH1 0x20 PUSH1 0x1F DUP4 ADD DIV SWAP1 POP SWAP2 SWAP1 POP JUMP JUMPDEST PUSH0 DUP3 DUP3 SHL SWAP1 POP SWAP3 SWAP2 POP POP JUMP JUMPDEST PUSH0 PUSH1 0x8 DUP4 MUL PUSH3 0x41F PUSH32 0xFFFFFFFFFFFFFFFFFFFFFFFFFFFFFFFFFFFFFFFFFFFFFFFFFFFFFFFFFFFFFFFF DUP3 PUSH3 0x3E2 JUMP JUMPDEST PUSH3 0x42B DUP7 DUP4 PUSH3 0x3E2 JUMP JUMPDEST SWAP6 POP DUP1 NOT DUP5 AND SWAP4 POP DUP1 DUP7 AND DUP5 OR SWAP3 POP POP POP SWAP4 SWAP3 POP POP POP JUMP JUMPDEST PUSH0 DUP2 SWAP1 POP SWAP2 SWAP1 POP JUMP JUMPDEST PUSH0 DUP2 SWAP1 POP SWAP2 SWAP1 POP JUMP JUMPDEST PUSH0 PUSH3 0x475 PUSH3 0x46F PUSH3 0x469 DUP5 PUSH3 0x443 JUMP JUMPDEST PUSH3 0x44C JUMP JUMPDEST PUSH3 0x443 JUMP JUMPDEST SWAP1 POP SWAP2 SWAP1 POP JUMP JUMPDEST PUSH0 DUP2 SWAP1 POP SWAP2 SWAP1 POP JUMP JUMPDEST PUSH3 0x490 DUP4 PUSH3 0x455 JUMP JUMPDEST PUSH3 0x4A8 PUSH3 0x49F DUP3 PUSH3 0x47C JUMP JUMPDEST DUP5 DUP5 SLOAD PUSH3 0x3EE JUMP JUMPDEST DUP3 SSTORE POP POP POP POP JUMP JUMPDEST PUSH0 SWAP1 JUMP JUMPDEST PUSH3 0x4BE PUSH3 0x4B0 JUMP JUMPDEST PUSH3 0x4CB DUP2 DUP5 DUP5 PUSH3 0x485 JUMP JUMPDEST POP POP POP JUMP JUMPDEST JUMPDEST DUP2 DUP2 LT ISZERO PUSH3 0x4F2 JUMPI PUSH3 0x4E6 PUSH0 DUP3 PUSH3 0x4B4 JUMP JUMPDEST PUSH1 0x1 DUP2 ADD SWAP1 POP PUSH3 0x4D1 JUMP JUMPDEST POP POP JUMP JUMPDEST PUSH1 0x1F DUP3 GT ISZERO PUSH3 0x541 JUMPI PUSH3 0x50B DUP2 PUSH3 0x3C1 JUMP JUMPDEST PUSH3 0x516 DUP5 PUSH3 0x3D3 JUMP JUMPDEST DUP2 ADD PUSH1 0x20 DUP6 LT ISZERO PUSH3 0x526 JUMPI DUP2 SWAP1 POP JUMPDEST PUSH3 0x53E PUSH3 0x535 DUP6 PUSH3 0x3D3 JUMP JUMPDEST DUP4 ADD DUP3 PUSH3 0x4D0 JUMP JUMPDEST POP POP JUMPDEST POP POP POP JUMP JUMPDEST PUSH0 DUP3 DUP3 SHR SWAP1 POP SWAP3 SWAP2 POP POP JUMP JUMPDEST PUSH0 PUSH3 0x563 PUSH0 NOT DUP5 PUSH1 0x8 MUL PUSH3 0x546 JUMP JUMPDEST NOT DUP1 DUP4 AND SWAP2 POP POP SWAP3 SWAP2 POP POP JUMP JUMPDEST PUSH0 PUSH3 0x57D DUP4 DUP4 PUSH3 0x552 JUMP JUMPDEST SWAP2 POP DUP3 PUSH1 0x2 MUL DUP3 OR SWAP1 POP SWAP3 SWAP2 POP POP JUMP JUMPDEST PUSH3 0x598 DUP3 PUSH3 0x329 JUMP JUMPDEST PUSH8 0xFFFFFFFFFFFFFFFF DUP2 GT ISZERO PUSH3 0x5B4 JUMPI PUSH3 0x5B3 PUSH3 0x333 JUMP JUMPDEST JUMPDEST PUSH3 0x5C0 DUP3 SLOAD PUSH3 0x38D JUMP JUMPDEST PUSH3 0x5CD DUP3 DUP3 DUP6 PUSH3 0x4F6 JUMP JUMPDEST PUSH0 PUSH1 0x20 SWAP1 POP PUSH1 0x1F DUP4 GT PUSH1 0x1 DUP2 EQ PUSH3 0x603 JUMPI PUSH0 DUP5 ISZERO PUSH3 0x5EE JUMPI DUP3 DUP8 ADD MLOAD SWAP1 POP JUMPDEST PUSH3 0x5FA DUP6 DUP3 PUSH3 0x570 JUMP JUMPDEST DUP7 SSTORE POP PUSH3 0x669 JUMP JUMPDEST PUSH1 0x1F NOT DUP5 AND PUSH3 0x613 DUP7 PUSH3 0x3C1 JUMP JUMPDEST PUSH0 JUMPDEST DUP3 DUP2 LT ISZERO PUSH3 0x63C JUMPI DUP5 DUP10 ADD MLOAD DUP3 SSTORE PUSH1 0x1 DUP3 ADD SWAP2 POP PUSH1 0x20 DUP6 ADD SWAP5 POP PUSH1 0x20 DUP2 ADD SWAP1 POP PUSH3 0x615 JUMP JUMPDEST DUP7 DUP4 LT ISZERO PUSH3 0x65C JUMPI DUP5 DUP10 ADD MLOAD PUSH3 0x658 PUSH1 0x1F DUP10 AND DUP3 PUSH3 0x552 JUMP JUMPDEST DUP4 SSTORE POP JUMPDEST PUSH1 0x1 PUSH1 0x2 DUP9 MUL ADD DUP9 SSTORE POP POP POP JUMPDEST POP POP POP POP POP POP JUMP JUMPDEST PUSH2 0x1A2F DUP1 PUSH3 0x67F PUSH0 CODECOPY PUSH0 RETURN INVALID PUSH1 0x80 PUSH1 0x40 MSTORE CALLVALUE DUP1 ISZERO PUSH2 0xF JUMPI PUSH0 DUP1 REVERT JUMPDEST POP PUSH1 0x4 CALLDATASIZE LT PUSH2 0x12A JUMPI PUSH0 CALLDATALOAD PUSH1 0xE0 SHR DUP1 PUSH4 0x40C10F19 GT PUSH2 0xAB JUMPI DUP1 PUSH4 0xA217FDDF GT PUSH2 0x6F JUMPI DUP1 PUSH4 0xA217FDDF EQ PUSH2 0x340 JUMPI DUP1 PUSH4 0xA9059CBB EQ PUSH2 0x35E JUMPI DUP1 PUSH4 0xD5391393 EQ PUSH2 0x38E JUMPI DUP1 PUSH4 0xD547741F EQ PUSH2 0x3AC JUMPI DUP1 PUSH4 0xDD62ED3E EQ PUSH2 0x3C8 JUMPI PUSH2 0x12A JUMP JUMPDEST DUP1 PUSH4 0x40C10F19 EQ PUSH2 0x28A JUMPI DUP1 PUSH4 0x70A08231 EQ PUSH2 0x2A6 JUMPI DUP1 PUSH4 0x779EB56B EQ PUSH2 0x2D6 JUMPI DUP1 PUSH4 0x91D14854 EQ PUSH2 0x2F2 JUMPI DUP1 PUSH4 0x95D89B41 EQ PUSH2 0x322 JUMPI PUSH2 0x12A JUMP JUMPDEST DUP1 PUSH4 0x248A9CA3 GT PUSH2 0xF2 JUMPI DUP1 PUSH4 0x248A9CA3 EQ PUSH2 0x1FA JUMPI DUP1 PUSH4 0x2F2FF15D EQ PUSH2 0x22A JUMPI DUP1 PUSH4 0x313CE567 EQ PUSH2 0x246 JUMPI DUP1 PUSH4 0x36568ABE EQ PUSH2 0x264 JUMPI DUP1 PUSH4 0x3FB1338C EQ PUSH2 0x280 JUMPI PUSH2 0x12A JUMP JUMPDEST DUP1 PUSH4 0x1FFC9A7 EQ PUSH2 0x12E JUMPI DUP1 PUSH4 0x6FDDE03 EQ PUSH2 0x15E JUMPI DUP1 PUSH4 0x95EA7B3 EQ PUSH2 0x17C JUMPI DUP1 PUSH4 0x18160DDD EQ PUSH2 0x1AC JUMPI DUP1 PUSH4 0x23B872DD EQ PUSH2 0x1CA JUMPI JUMPDEST PUSH0 DUP1 REVERT JUMPDEST PUSH2 0x148 PUSH1 0x4 DUP1 CALLDATASIZE SUB DUP2 ADD SWAP1 PUSH2 0x143 SWAP2 SWAP1 PUSH2 0x1352 JUMP JUMPDEST PUSH2 0x3F8 JUMP JUMPDEST PUSH1 0x40 MLOAD PUSH2 0x155 SWAP2 SWAP1 PUSH2 0x1397 JUMP JUMPDEST PUSH1 0x40 MLOAD DUP1 SWAP2 SUB SWAP1 RETURN JUMPDEST PUSH2 0x166 PUSH2 0x471 JUMP JUMPDEST PUSH1 0x40 MLOAD PUSH2 0x173 SWAP2 SWAP1 PUSH2 0x143A JUMP JUMPDEST PUSH1 0x40 MLOAD DUP1 SWAP2 SUB SWAP1 RETURN JUMPDEST PUSH2 0x196 PUSH1 0x4 DUP1 CALLDATASIZE SUB DUP2 ADD SWAP1 PUSH2 0x191 SWAP2 SWAP1 PUSH2 0x14E7 JUMP JUMPDEST PUSH2 0x501 JUMP JUMPDEST PUSH1 0x40 MLOAD PUSH2 0x1A3 SWAP2 SWAP1 PUSH2 0x1397 JUMP JUMPDEST PUSH1 0x40 MLOAD DUP1 SWAP2 SUB SWAP1 RETURN JUMPDEST PUSH2 0x1B4 PUSH2 0x523 JUMP JUMPDEST PUSH1 0x40 MLOAD PUSH2 0x1C1 SWAP2 SWAP1 PUSH2 0x1534 JUMP JUMPDEST PUSH1 0x40 MLOAD DUP1 SWAP2 SUB SWAP1 RETURN JUMPDEST PUSH2 0x1E4 PUSH1 0x4 DUP1 CALLDATASIZE SUB DUP2 ADD SWAP1 PUSH2 0x1DF SWAP2 SWAP1 PUSH2 0x154D JUMP JUMPDEST PUSH2 0x52C JUMP JUMPDEST PUSH1 0x40 MLOAD PUSH2 0x1F1 SWAP2 SWAP1 PUSH2 0x1397 JUMP JUMPDEST PUSH1 0x40 MLOAD DUP1 SWAP2 SUB SWAP1 RETURN JUMPDEST PUSH2 0x214 PUSH1 0x4 DUP1 CALLDATASIZE SUB DUP2 ADD SWAP1 PUSH2 0x20F SWAP2 SWAP1 PUSH2 0x15D0 JUMP JUMPDEST PUSH2 0x55A JUMP JUMPDEST PUSH1 0x40 MLOAD PUSH2 0x221 SWAP2 SWAP1 PUSH2 0x160A JUMP JUMPDEST PUSH1 0x40 MLOAD DUP1 SWAP2 SUB SWAP1 RETURN JUMPDEST PUSH2 0x244 PUSH1 0x4 DUP1 CALLDATASIZE SUB DUP2 ADD SWAP1 PUSH2 0x23F SWAP2 SWAP1 PUSH2 0x1623 JUMP JUMPDEST PUSH2 0x577 JUMP JUMPDEST STOP JUMPDEST PUSH2 0x24E PUSH2 0x599 JUMP JUMPDEST PUSH1 0x40 MLOAD PUSH2 0x25B SWAP2 SWAP1 PUSH2 0x167C JUMP JUMPDEST PUSH1 0x40 MLOAD DUP1 SWAP2 SUB SWAP1 RETURN JUMPDEST PUSH2 0x27E PUSH1 0x4 DUP1 CALLDATASIZE SUB DUP2 ADD SWAP1 PUSH2 0x279 SWAP2 SWAP1 PUSH2 0x1623 JUMP JUMPDEST PUSH2 0x5A1 JUMP JUMPDEST STOP JUMPDEST PUSH2 0x288 PUSH2 0x61C JUMP JUMPDEST STOP JUMPDEST PUSH2 0x2A4 PUSH1 0x4 DUP1 CALLDATASIZE SUB DUP2 ADD SWAP1 PUSH2 0x29F SWAP2 SWAP1 PUSH2 0x14E7 JUMP JUMPDEST PUSH2 0x6B6 JUMP JUMPDEST STOP JUMPDEST PUSH2 0x2C0 PUSH1 0x4 DUP1 CALLDATASIZE SUB DUP2 ADD SWAP1 PUSH2 0x2BB SWAP2 SWAP1 PUSH2 0x1695 JUMP JUMPDEST PUSH2 0x70D JUMP JUMPDEST PUSH1 0x40 MLOAD PUSH2 0x2CD SWAP2 SWAP1 PUSH2 0x1534 JUMP JUMPDEST PUSH1 0x40 MLOAD DUP1 SWAP2 SUB SWAP1 RETURN JUMPDEST PUSH2 0x2F0 PUSH1 0x4 DUP1 CALLDATASIZE SUB DUP2 ADD SWAP1 PUSH2 0x2EB SWAP2 SWAP1 PUSH2 0x1695 JUMP JUMPDEST PUSH2 0x752 JUMP JUMPDEST STOP JUMPDEST PUSH2 0x30C PUSH1 0x4 DUP1 CALLDATASIZE SUB DUP2 ADD SWAP1 PUSH2 0x307 SWAP2 SWAP1 PUSH2 0x1623 JUMP JUMPDEST PUSH2 0x7F2 JUMP JUMPDEST PUSH1 0x40 MLOAD PUSH2 0x319 SWAP2 SWAP1 PUSH2 0x1397 JUMP JUMPDEST PUSH1 0x40 MLOAD DUP1 SWAP2 SUB SWAP1 RETURN JUMPDEST PUSH2 0x32A PUSH2 0x856 JUMP JUMPDEST PUSH1 0x40 MLOAD PUSH2 0x337 SWAP2 SWAP1 PUSH2 0x143A JUMP JUMPDEST PUSH1 0x40 MLOAD DUP1 SWAP2 SUB SWAP1 RETURN JUMPDEST PUSH2 0x348 PUSH2 0x8E6 JUMP JUMPDEST PUSH1 0x40 MLOAD PUSH2 0x355 SWAP2 SWAP1 PUSH2 0x160A JUMP JUMPDEST PUSH1 0x40 MLOAD DUP1 SWAP2 SUB SWAP1 RETURN JUMPDEST PUSH2 0x378 PUSH1 0x4 DUP1 CALLDATASIZE SUB DUP2 ADD SWAP1 PUSH2 0x373 SWAP2 SWAP1 PUSH2 0x14E7 JUMP JUMPDEST PUSH2 0x8EC JUMP JUMPDEST PUSH1 0x40 MLOAD PUSH2 0x385 SWAP2 SWAP1 PUSH2 0x1397 JUMP JUMPDEST PUSH1 0x40 MLOAD DUP1 SWAP2 SUB SWAP1 RETURN JUMPDEST PUSH2 0x396 PUSH2 0x90E JUMP JUMPDEST PUSH1 0x40 MLOAD PUSH2 0x3A3 SWAP2 SWAP1 PUSH2 0x160A JUMP JUMPDEST PUSH1 0x40 MLOAD DUP1 SWAP2 SUB SWAP1 RETURN JUMPDEST PUSH2 0x3C6 PUSH1 0x4 DUP1 CALLDATASIZE SUB DUP2 ADD SWAP1 PUSH2 0x3C1 SWAP2 SWAP1 PUSH2 0x1623 JUMP JUMPDEST PUSH2 0x932 JUMP JUMPDEST STOP JUMPDEST PUSH2 0x3E2 PUSH1 0x4 DUP1 CALLDATASIZE SUB DUP2 ADD SWAP1 PUSH2 0x3DD SWAP2 SWAP1 PUSH2 0x16C0 JUMP JUMPDEST PUSH2 0x954 JUMP JUMPDEST PUSH1 0x40 MLOAD PUSH2 0x3EF SWAP2 SWAP1 PUSH2 0x1534 JUMP JUMPDEST PUSH1 0x40 MLOAD DUP1 SWAP2 SUB SWAP1 RETURN JUMPDEST PUSH0 PUSH32 0x7965DB0B00000000000000000000000000000000000000000000000000000000 PUSH28 0xFFFFFFFFFFFFFFFFFFFFFFFFFFFFFFFFFFFFFFFFFFFFFFFFFFFFFFFF NOT AND DUP3 PUSH28 0xFFFFFFFFFFFFFFFFFFFFFFFFFFFFFFFFFFFFFFFFFFFFFFFFFFFFFFFF NOT AND EQ DUP1 PUSH2 0x46A JUMPI POP PUSH2 0x469 DUP3 PUSH2 0x9D6 JUMP JUMPDEST JUMPDEST SWAP1 POP SWAP2 SWAP1 POP JUMP JUMPDEST PUSH1 0x60 PUSH1 0x3 DUP1 SLOAD PUSH2 0x480 SWAP1 PUSH2 0x172B JUMP JUMPDEST DUP1 PUSH1 0x1F ADD PUSH1 0x20 DUP1 SWAP2 DIV MUL PUSH1 0x20 ADD PUSH1 0x40 MLOAD SWAP1 DUP2 ADD PUSH1 0x40 MSTORE DUP1 SWAP3 SWAP2 SWAP1 DUP2 DUP2 MSTORE PUSH1 0x20 ADD DUP3 DUP1 SLOAD PUSH2 0x4AC SWAP1 PUSH2 0x172B JUMP JUMPDEST DUP1 ISZERO PUSH2 0x4F7 JUMPI DUP1 PUSH1 0x1F LT PUSH2 0x4CE JUMPI PUSH2 0x100 DUP1 DUP4 SLOAD DIV MUL DUP4 MSTORE SWAP2 PUSH1 0x20 ADD SWAP2 PUSH2 0x4F7 JUMP JUMPDEST DUP3 ADD SWAP2 SWAP1 PUSH0 MSTORE PUSH1 0x20 PUSH0 KECCAK256 SWAP1 JUMPDEST DUP2 SLOAD DUP2 MSTORE SWAP1 PUSH1 0x1 ADD SWAP1 PUSH1 0x20 ADD DUP1 DUP4 GT PUSH2 0x4DA JUMPI DUP3 SWAP1 SUB PUSH1 0x1F AND DUP3 ADD SWAP2 JUMPDEST POP POP POP POP POP SWAP1 POP SWAP1 JUMP JUMPDEST PUSH0 DUP1 PUSH2 0x50B PUSH2 0xA3F JUMP JUMPDEST SWAP1 POP PUSH2 0x518 DUP2 DUP6 DUP6 PUSH2 0xA46 JUMP JUMPDEST PUSH1 0x1 SWAP2 POP POP SWAP3 SWAP2 POP POP JUMP JUMPDEST PUSH0 PUSH1 0x2 SLOAD SWAP1 POP SWAP1 JUMP JUMPDEST PUSH0 DUP1 PUSH2 0x536 PUSH2 0xA3F JUMP JUMPDEST SWAP1 POP PUSH2 0x543 DUP6 DUP3 DUP6 PUSH2 0xA58 JUMP JUMPDEST PUSH2 0x54E DUP6 DUP6 DUP6 PUSH2 0xAEA JUMP JUMPDEST PUSH1 0x1 SWAP2 POP POP SWAP4 SWAP3 POP POP POP JUMP JUMPDEST PUSH0 PUSH1 0x5 PUSH0 DUP4 DUP2 MSTORE PUSH1 0x20 ADD SWAP1 DUP2 MSTORE PUSH1 0x20 ADD PUSH0 KECCAK256 PUSH1 0x1 ADD SLOAD SWAP1 POP SWAP2 SWAP1 POP JUMP JUMPDEST PUSH2 0x580 DUP3 PUSH2 0x55A JUMP JUMPDEST PUSH2 0x589 DUP2 PUSH2 0xBDA JUMP JUMPDEST PUSH2 0x593 DUP4 DUP4 PUSH2 0xBEE JUMP JUMPDEST POP POP POP POP JUMP JUMPDEST PUSH0 PUSH1 0x12 SWAP1 POP SWAP1 JUMP JUMPDEST PUSH2 0x5A9 PUSH2 0xA3F JUMP JUMPDEST PUSH20 0xFFFFFFFFFFFFFFFFFFFFFFFFFFFFFFFFFFFFFFFF AND DUP2 PUSH20 0xFFFFFFFFFFFFFFFFFFFFFFFFFFFFFFFFFFFFFFFF AND EQ PUSH2 0x60D JUMPI PUSH1 0x40 MLOAD PUSH32 0x6697B23200000000000000000000000000000000000000000000000000000000 DUP2 MSTORE PUSH1 0x4 ADD PUSH1 0x40 MLOAD DUP1 SWAP2 SUB SWAP1 REVERT JUMPDEST PUSH2 0x617 DUP3 DUP3 PUSH2 0xCD8 JUMP JUMPDEST POP POP POP JUMP JUMPDEST PUSH2 0x64C PUSH2 0x627 PUSH2 0xA3F JUMP JUMPDEST PUSH2 0x62F PUSH2 0x599 JUMP JUMPDEST PUSH1 0xA PUSH2 0x63B SWAP2 SWAP1 PUSH2 0x18B7 JUMP JUMPDEST PUSH1 0x1 PUSH2 0x647 SWAP2 SWAP1 PUSH2 0x1901 JUMP JUMPDEST PUSH2 0xDC2 JUMP JUMPDEST PUSH2 0x654 PUSH2 0xA3F JUMP JUMPDEST PUSH20 0xFFFFFFFFFFFFFFFFFFFFFFFFFFFFFFFFFFFFFFFF AND PUSH2 0x672 PUSH2 0xA3F JUMP JUMPDEST PUSH20 0xFFFFFFFFFFFFFFFFFFFFFFFFFFFFFFFFFFFFFFFF AND PUSH32 0xA5CABFD712192254DFC660878B70B961D3CD68145D6AF3220FC291F1DA534191 PUSH1 0x40 MLOAD PUSH1 0x40 MLOAD DUP1 SWAP2 SUB SWAP1 LOG3 JUMP JUMPDEST PUSH32 0x9F2DF0FED2C77648DE5860A4CC508CD0818C85B8B8A1AB4CEEEF8D981C8956A6 PUSH2 0x6E0 DUP2 PUSH2 0xBDA JUMP JUMPDEST PUSH2 0x708 DUP4 PUSH2 0x6EC PUSH2 0x599 JUMP JUMPDEST PUSH1 0xA PUSH2 0x6F8 SWAP2 SWAP1 PUSH2 0x18B7 JUMP JUMPDEST DUP5 PUSH2 0x703 SWAP2 SWAP1 PUSH2 0x1901 JUMP JUMPDEST PUSH2 0xE41 JUMP JUMPDEST POP POP POP JUMP JUMPDEST PUSH0 DUP1 PUSH0 DUP4 PUSH20 0xFFFFFFFFFFFFFFFFFFFFFFFFFFFFFFFFFFFFFFFF AND PUSH20 0xFFFFFFFFFFFFFFFFFFFFFFFFFFFFFFFFFFFFFFFF AND DUP2 MSTORE PUSH1 0x20 ADD SWAP1 DUP2 MSTORE PUSH1 0x20 ADD PUSH0 KECCAK256 SLOAD SWAP1 POP SWAP2 SWAP1 POP JUMP JUMPDEST PUSH2 0x783 DUP2 PUSH2 0x75E PUSH2 0xA3F JUMP JUMPDEST PUSH2 0x766 PUSH2 0x599 JUMP JUMPDEST PUSH1 0xA PUSH2 0x772 SWAP2 SWAP1 PUSH2 0x18B7 JUMP JUMPDEST PUSH1 0x1 PUSH2 0x77E SWAP2 SWAP1 PUSH2 0x1901 JUMP JUMPDEST PUSH2 0xA58 JUMP JUMPDEST PUSH2 0x78E DUP2 PUSH1 0x1 PUSH2 0xDC2 JUMP JUMPDEST DUP1 PUSH20 0xFFFFFFFFFFFFFFFFFFFFFFFFFFFFFFFFFFFFFFFF AND PUSH2 0x7AD PUSH2 0xA3F JUMP JUMPDEST PUSH20 0xFFFFFFFFFFFFFFFFFFFFFFFFFFFFFFFFFFFFFFFF AND PUSH32 0xA5CABFD712192254DFC660878B70B961D3CD68145D6AF3220FC291F1DA534191 PUSH1 0x40 MLOAD PUSH1 0x40 MLOAD DUP1 SWAP2 SUB SWAP1 LOG3 POP JUMP JUMPDEST PUSH0 PUSH1 0x5 PUSH0 DUP5 DUP2 MSTORE PUSH1 0x20 ADD SWAP1 DUP2 MSTORE PUSH1 0x20 ADD PUSH0 KECCAK256 PUSH0 ADD PUSH0 DUP4 PUSH20 0xFFFFFFFFFFFFFFFFFFFFFFFFFFFFFFFFFFFFFFFF AND PUSH20 0xFFFFFFFFFFFFFFFFFFFFFFFFFFFFFFFFFFFFFFFF AND DUP2 MSTORE PUSH1 0x20 ADD SWAP1 DUP2 MSTORE PUSH1 0x20 ADD PUSH0 KECCAK256 PUSH0 SWAP1 SLOAD SWAP1 PUSH2 0x100 EXP SWAP1 DIV PUSH1 0xFF AND SWAP1 POP SWAP3 SWAP2 POP POP JUMP JUMPDEST PUSH1 0x60 PUSH1 0x4 DUP1 SLOAD PUSH2 0x865 SWAP1 PUSH2 0x172B JUMP JUMPDEST DUP1 PUSH1 0x1F ADD PUSH1 0x20 DUP1 SWAP2 DIV MUL PUSH1 0x20 ADD PUSH1 0x40 MLOAD SWAP1 DUP2 ADD PUSH1 0x40 MSTORE DUP1 SWAP3 SWAP2 SWAP1 DUP2 DUP2 MSTORE PUSH1 0x20 ADD DUP3 DUP1 SLOAD PUSH2 0x891 SWAP1 PUSH2 0x172B JUMP JUMPDEST DUP1 ISZERO PUSH2 0x8DC JUMPI DUP1 PUSH1 0x1F LT PUSH2 0x8B3 JUMPI PUSH2 0x100 DUP1 DUP4 SLOAD DIV MUL DUP4 MSTORE SWAP2 PUSH1 0x20 ADD SWAP2 PUSH2 0x8DC JUMP JUMPDEST DUP3 ADD SWAP2 SWAP1 PUSH0 MSTORE PUSH1 0x20 PUSH0 KECCAK256 SWAP1 JUMPDEST DUP2 SLOAD DUP2 MSTORE SWAP1 PUSH1 0x1 ADD SWAP1 PUSH1 0x20 ADD DUP1 DUP4 GT PUSH2 0x8BF JUMPI DUP3 SWAP1 SUB PUSH1 0x1F AND DUP3 ADD SWAP2 JUMPDEST POP POP POP POP POP SWAP1 POP SWAP1 JUMP JUMPDEST PUSH0 DUP1 SHL DUP2 JUMP JUMPDEST PUSH0 DUP1 PUSH2 0x8F6 PUSH2 0xA3F JUMP JUMPDEST SWAP1 POP PUSH2 0x903 DUP2 DUP6 DUP6 PUSH2 0xAEA JUMP JUMPDEST PUSH1 0x1 SWAP2 POP POP SWAP3 SWAP2 POP POP JUMP JUMPDEST PUSH32 0x9F2DF0FED2C77648DE5860A4CC508CD0818C85B8B8A1AB4CEEEF8D981C8956A6 DUP2 JUMP JUMPDEST PUSH2 0x93B DUP3 PUSH2 0x55A JUMP JUMPDEST PUSH2 0x944 DUP2 PUSH2 0xBDA JUMP JUMPDEST PUSH2 0x94E DUP4 DUP4 PUSH2 0xCD8 JUMP JUMPDEST POP POP POP POP JUMP JUMPDEST PUSH0 PUSH1 0x1 PUSH0 DUP5 PUSH20 0xFFFFFFFFFFFFFFFFFFFFFFFFFFFFFFFFFFFFFFFF AND PUSH20 0xFFFFFFFFFFFFFFFFFFFFFFFFFFFFFFFFFFFFFFFF AND DUP2 MSTORE PUSH1 0x20 ADD SWAP1 DUP2 MSTORE PUSH1 0x20 ADD PUSH0 KECCAK256 PUSH0 DUP4 PUSH20 0xFFFFFFFFFFFFFFFFFFFFFFFFFFFFFFFFFFFFFFFF AND PUSH20 0xFFFFFFFFFFFFFFFFFFFFFFFFFFFFFFFFFFFFFFFF AND DUP2 MSTORE PUSH1 0x20 ADD SWAP1 DUP2 MSTORE PUSH1 0x20 ADD PUSH0 KECCAK256 SLOAD SWAP1 POP SWAP3 SWAP2 POP POP JUMP JUMPDEST PUSH0 PUSH32 0x1FFC9A700000000000000000000000000000000000000000000000000000000 PUSH28 0xFFFFFFFFFFFFFFFFFFFFFFFFFFFFFFFFFFFFFFFFFFFFFFFFFFFFFFFF NOT AND DUP3 PUSH28 0xFFFFFFFFFFFFFFFFFFFFFFFFFFFFFFFFFFFFFFFFFFFFFFFFFFFFFFFF NOT AND EQ SWAP1 POP SWAP2 SWAP1 POP JUMP JUMPDEST PUSH0 CALLER SWAP1 POP SWAP1 JUMP JUMPDEST PUSH2 0xA53 DUP4 DUP4 DUP4 PUSH1 0x1 PUSH2 0xEC0 JUMP JUMPDEST POP POP POP JUMP JUMPDEST PUSH0 PUSH2 0xA63 DUP5 DUP5 PUSH2 0x954 JUMP JUMPDEST SWAP1 POP PUSH32 0xFFFFFFFFFFFFFFFFFFFFFFFFFFFFFFFFFFFFFFFFFFFFFFFFFFFFFFFFFFFFFFFF DUP2 EQ PUSH2 0xAE4 JUMPI DUP2 DUP2 LT ISZERO PUSH2 0xAD5 JUMPI DUP3 DUP2 DUP4 PUSH1 0x40 MLOAD PUSH32 0xFB8F41B200000000000000000000000000000000000000000000000000000000 DUP2 MSTORE PUSH1 0x4 ADD PUSH2 0xACC SWAP4 SWAP3 SWAP2 SWAP1 PUSH2 0x1951 JUMP JUMPDEST PUSH1 0x40 MLOAD DUP1 SWAP2 SUB SWAP1 REVERT JUMPDEST PUSH2 0xAE3 DUP5 DUP5 DUP5 DUP5 SUB PUSH0 PUSH2 0xEC0 JUMP JUMPDEST JUMPDEST POP POP POP POP JUMP JUMPDEST PUSH0 PUSH20 0xFFFFFFFFFFFFFFFFFFFFFFFFFFFFFFFFFFFFFFFF AND DUP4 PUSH20 0xFFFFFFFFFFFFFFFFFFFFFFFFFFFFFFFFFFFFFFFF AND SUB PUSH2 0xB5A JUMPI PUSH0 PUSH1 0x40 MLOAD PUSH32 0x96C6FD1E00000000000000000000000000000000000000000000000000000000 DUP2 MSTORE PUSH1 0x4 ADD PUSH2 0xB51 SWAP2 SWAP1 PUSH2 0x1986 JUMP JUMPDEST PUSH1 0x40 MLOAD DUP1 SWAP2 SUB SWAP1 REVERT JUMPDEST PUSH0 PUSH20 0xFFFFFFFFFFFFFFFFFFFFFFFFFFFFFFFFFFFFFFFF AND DUP3 PUSH20 0xFFFFFFFFFFFFFFFFFFFFFFFFFFFFFFFFFFFFFFFF AND SUB PUSH2 0xBCA JUMPI PUSH0 PUSH1 0x40 MLOAD PUSH32 0xEC442F0500000000000000000000000000000000000000000000000000000000 DUP2 MSTORE PUSH1 0x4 ADD PUSH2 0xBC1 SWAP2 SWAP1 PUSH2 0x1986 JUMP JUMPDEST PUSH1 0x40 MLOAD DUP1 SWAP2 SUB SWAP1 REVERT JUMPDEST PUSH2 0xBD5 DUP4 DUP4 DUP4 PUSH2 0x108F JUMP JUMPDEST POP POP POP JUMP JUMPDEST PUSH2 0xBEB DUP2 PUSH2 0xBE6 PUSH2 0xA3F JUMP JUMPDEST PUSH2 0x12A8 JUMP JUMPDEST POP JUMP JUMPDEST PUSH0 PUSH2 0xBF9 DUP4 DUP4 PUSH2 0x7F2 JUMP JUMPDEST PUSH2 0xCCE JUMPI PUSH1 0x1 PUSH1 0x5 PUSH0 DUP6 DUP2 MSTORE PUSH1 0x20 ADD SWAP1 DUP2 MSTORE PUSH1 0x20 ADD PUSH0 KECCAK256 PUSH0 ADD PUSH0 DUP5 PUSH20 0xFFFFFFFFFFFFFFFFFFFFFFFFFFFFFFFFFFFFFFFF AND PUSH20 0xFFFFFFFFFFFFFFFFFFFFFFFFFFFFFFFFFFFFFFFF AND DUP2 MSTORE PUSH1 0x20 ADD SWAP1 DUP2 MSTORE PUSH1 0x20 ADD PUSH0 KECCAK256 PUSH0 PUSH2 0x100 EXP DUP2 SLOAD DUP2 PUSH1 0xFF MUL NOT AND SWAP1 DUP4 ISZERO ISZERO MUL OR SWAP1 SSTORE POP PUSH2 0xC6B PUSH2 0xA3F JUMP JUMPDEST PUSH20 0xFFFFFFFFFFFFFFFFFFFFFFFFFFFFFFFFFFFFFFFF AND DUP3 PUSH20 0xFFFFFFFFFFFFFFFFFFFFFFFFFFFFFFFFFFFFFFFF AND DUP5 PUSH32 0x2F8788117E7EFF1D82E926EC794901D17C78024A50270940304540A733656F0D PUSH1 0x40 MLOAD PUSH1 0x40 MLOAD DUP1 SWAP2 SUB SWAP1 LOG4 PUSH1 0x1 SWAP1 POP PUSH2 0xCD2 JUMP JUMPDEST PUSH0 SWAP1 POP JUMPDEST SWAP3 SWAP2 POP POP JUMP JUMPDEST PUSH0 PUSH2 0xCE3 DUP4 DUP4 PUSH2 0x7F2 JUMP JUMPDEST ISZERO PUSH2 0xDB8 JUMPI PUSH0 PUSH1 0x5 PUSH0 DUP6 DUP2 MSTORE PUSH1 0x20 ADD SWAP1 DUP2 MSTORE PUSH1 0x20 ADD PUSH0 KECCAK256 PUSH0 ADD PUSH0 DUP5 PUSH20 0xFFFFFFFFFFFFFFFFFFFFFFFFFFFFFFFFFFFFFFFF AND PUSH20 0xFFFFFFFFFFFFFFFFFFFFFFFFFFFFFFFFFFFFFFFF AND DUP2 MSTORE PUSH1 0x20 ADD SWAP1 DUP2 MSTORE PUSH1 0x20 ADD PUSH0 KECCAK256 PUSH0 PUSH2 0x100 EXP DUP2 SLOAD DUP2 PUSH1 0xFF MUL NOT AND SWAP1 DUP4 ISZERO ISZERO MUL OR SWAP1 SSTORE POP PUSH2 0xD55 PUSH2 0xA3F JUMP JUMPDEST PUSH20 0xFFFFFFFFFFFFFFFFFFFFFFFFFFFFFFFFFFFFFFFF AND DUP3 PUSH20 0xFFFFFFFFFFFFFFFFFFFFFFFFFFFFFFFFFFFFFFFF AND DUP5 PUSH32 0xF6391F5C32D9C69D2A47EA670B442974B53935D1EDC7FD64EB21E047A839171B PUSH1 0x40 MLOAD PUSH1 0x40 MLOAD DUP1 SWAP2 SUB SWAP1 LOG4 PUSH1 0x1 SWAP1 POP PUSH2 0xDBC JUMP JUMPDEST PUSH0 SWAP1 POP JUMPDEST SWAP3 SWAP2 POP POP JUMP JUMPDEST PUSH0 PUSH20 0xFFFFFFFFFFFFFFFFFFFFFFFFFFFFFFFFFFFFFFFF AND DUP3 PUSH20 0xFFFFFFFFFFFFFFFFFFFFFFFFFFFFFFFFFFFFFFFF AND SUB PUSH2 0xE32 JUMPI PUSH0 PUSH1 0x40 MLOAD PUSH32 0x96C6FD1E00000000000000000000000000000000000000000000000000000000 DUP2 MSTORE PUSH1 0x4 ADD PUSH2 0xE29 SWAP2 SWAP1 PUSH2 0x1986 JUMP JUMPDEST PUSH1 0x40 MLOAD DUP1 SWAP2 SUB SWAP1 REVERT JUMPDEST PUSH2 0xE3D DUP3 PUSH0 DUP4 PUSH2 0x108F JUMP JUMPDEST POP POP JUMP JUMPDEST PUSH0 PUSH20 0xFFFFFFFFFFFFFFFFFFFFFFFFFFFFFFFFFFFFFFFF AND DUP3 PUSH20 0xFFFFFFFFFFFFFFFFFFFFFFFFFFFFFFFFFFFFFFFF AND SUB PUSH2 0xEB1 JUMPI PUSH0 PUSH1 0x40 MLOAD PUSH32 0xEC442F0500000000000000000000000000000000000000000000000000000000 DUP2 MSTORE PUSH1 0x4 ADD PUSH2 0xEA8 SWAP2 SWAP1 PUSH2 0x1986 JUMP JUMPDEST PUSH1 0x40 MLOAD DUP1 SWAP2 SUB SWAP1 REVERT JUMPDEST PUSH2 0xEBC PUSH0 DUP4 DUP4 PUSH2 0x108F JUMP JUMPDEST POP POP JUMP JUMPDEST PUSH0 PUSH20 0xFFFFFFFFFFFFFFFFFFFFFFFFFFFFFFFFFFFFFFFF AND DUP5 PUSH20 0xFFFFFFFFFFFFFFFFFFFFFFFFFFFFFFFFFFFFFFFF AND SUB PUSH2 0xF30 JUMPI PUSH0 PUSH1 0x40 MLOAD PUSH32 0xE602DF0500000000000000000000000000000000000000000000000000000000 DUP2 MSTORE PUSH1 0x4 ADD PUSH2 0xF27 SWAP2 SWAP1 PUSH2 0x1986 JUMP JUMPDEST PUSH1 0x40 MLOAD DUP1 SWAP2 SUB SWAP1 REVERT JUMPDEST PUSH0 PUSH20 0xFFFFFFFFFFFFFFFFFFFFFFFFFFFFFFFFFFFFFFFF AND DUP4 PUSH20 0xFFFFFFFFFFFFFFFFFFFFFFFFFFFFFFFFFFFFFFFF AND SUB PUSH2 0xFA0 JUMPI PUSH0 PUSH1 0x40 MLOAD PUSH32 0x94280D6200000000000000000000000000000000000000000000000000000000 DUP2 MSTORE PUSH1 0x4 ADD PUSH2 0xF97 SWAP2 SWAP1 PUSH2 0x1986 JUMP JUMPDEST PUSH1 0x40 MLOAD DUP1 SWAP2 SUB SWAP1 REVERT JUMPDEST DUP2 PUSH1 0x1 PUSH0 DUP7 PUSH20 0xFFFFFFFFFFFFFFFFFFFFFFFFFFFFFFFFFFFFFFFF AND PUSH20 0xFFFFFFFFFFFFFFFFFFFFFFFFFFFFFFFFFFFFFFFF AND DUP2 MSTORE PUSH1 0x20 ADD SWAP1 DUP2 MSTORE PUSH1 0x20 ADD PUSH0 KECCAK256 PUSH0 DUP6 PUSH20 0xFFFFFFFFFFFFFFFFFFFFFFFFFFFFFFFFFFFFFFFF AND PUSH20 0xFFFFFFFFFFFFFFFFFFFFFFFFFFFFFFFFFFFFFFFF AND DUP2 MSTORE PUSH1 0x20 ADD SWAP1 DUP2 MSTORE PUSH1 0x20 ADD PUSH0 KECCAK256 DUP2 SWAP1 SSTORE POP DUP1 ISZERO PUSH2 0x1089 JUMPI DUP3 PUSH20 0xFFFFFFFFFFFFFFFFFFFFFFFFFFFFFFFFFFFFFFFF AND DUP5 PUSH20 0xFFFFFFFFFFFFFFFFFFFFFFFFFFFFFFFFFFFFFFFF AND PUSH32 0x8C5BE1E5EBEC7D5BD14F71427D1E84F3DD0314C0F7B2291E5B200AC8C7C3B925 DUP5 PUSH1 0x40 MLOAD PUSH2 0x1080 SWAP2 SWAP1 PUSH2 0x1534 JUMP JUMPDEST PUSH1 0x40 MLOAD DUP1 SWAP2 SUB SWAP1 LOG3 JUMPDEST POP POP POP POP JUMP JUMPDEST PUSH0 PUSH20 0xFFFFFFFFFFFFFFFFFFFFFFFFFFFFFFFFFFFFFFFF AND DUP4 PUSH20 0xFFFFFFFFFFFFFFFFFFFFFFFFFFFFFFFFFFFFFFFF AND SUB PUSH2 0x10DF JUMPI DUP1 PUSH1 0x2 PUSH0 DUP3 DUP3 SLOAD PUSH2 0x10D3 SWAP2 SWAP1 PUSH2 0x199F JUMP JUMPDEST SWAP3 POP POP DUP2 SWAP1 SSTORE POP PUSH2 0x11AD JUMP JUMPDEST PUSH0 DUP1 PUSH0 DUP6 PUSH20 0xFFFFFFFFFFFFFFFFFFFFFFFFFFFFFFFFFFFFFFFF AND PUSH20 0xFFFFFFFFFFFFFFFFFFFFFFFFFFFFFFFFFFFFFFFF AND DUP2 MSTORE PUSH1 0x20 ADD SWAP1 DUP2 MSTORE PUSH1 0x20 ADD PUSH0 KECCAK256 SLOAD SWAP1 POP DUP2 DUP2 LT ISZERO PUSH2 0x1168 JUMPI DUP4 DUP2 DUP4 PUSH1 0x40 MLOAD PUSH32 0xE450D38C00000000000000000000000000000000000000000000000000000000 DUP2 MSTORE PUSH1 0x4 ADD PUSH2 0x115F SWAP4 SWAP3 SWAP2 SWAP1 PUSH2 0x1951 JUMP JUMPDEST PUSH1 0x40 MLOAD DUP1 SWAP2 SUB SWAP1 REVERT JUMPDEST DUP2 DUP2 SUB PUSH0 DUP1 DUP7 PUSH20 0xFFFFFFFFFFFFFFFFFFFFFFFFFFFFFFFFFFFFFFFF AND PUSH20 0xFFFFFFFFFFFFFFFFFFFFFFFFFFFFFFFFFFFFFFFF AND DUP2 MSTORE PUSH1 0x20 ADD SWAP1 DUP2 MSTORE PUSH1 0x20 ADD PUSH0 KECCAK256 DUP2 SWAP1 SSTORE POP POP JUMPDEST PUSH0 PUSH20 0xFFFFFFFFFFFFFFFFFFFFFFFFFFFFFFFFFFFFFFFF AND DUP3 PUSH20 0xFFFFFFFFFFFFFFFFFFFFFFFFFFFFFFFFFFFFFFFF AND SUB PUSH2 0x11F4 JUMPI DUP1 PUSH1 0x2 PUSH0 DUP3 DUP3 SLOAD SUB SWAP3 POP POP DUP2 SWAP1 SSTORE POP PUSH2 0x123E JUMP JUMPDEST DUP1 PUSH0 DUP1 DUP5 PUSH20 0xFFFFFFFFFFFFFFFFFFFFFFFFFFFFFFFFFFFFFFFF AND PUSH20 0xFFFFFFFFFFFFFFFFFFFFFFFFFFFFFFFFFFFFFFFF AND DUP2 MSTORE PUSH1 0x20 ADD SWAP1 DUP2 MSTORE PUSH1 0x20 ADD PUSH0 KECCAK256 PUSH0 DUP3 DUP3 SLOAD ADD SWAP3 POP POP DUP2 SWAP1 SSTORE POP JUMPDEST DUP2 PUSH20 0xFFFFFFFFFFFFFFFFFFFFFFFFFFFFFFFFFFFFFFFF AND DUP4 PUSH20 0xFFFFFFFFFFFFFFFFFFFFFFFFFFFFFFFFFFFFFFFF AND PUSH32 0xDDF252AD1BE2C89B69C2B068FC378DAA952BA7F163C4A11628F55A4DF523B3EF DUP4 PUSH1 0x40 MLOAD PUSH2 0x129B SWAP2 SWAP1 PUSH2 0x1534 JUMP JUMPDEST PUSH1 0x40 MLOAD DUP1 SWAP2 SUB SWAP1 LOG3 POP POP POP JUMP JUMPDEST PUSH2 0x12B2 DUP3 DUP3 PUSH2 0x7F2 JUMP JUMPDEST PUSH2 0x12F5 JUMPI DUP1 DUP3 PUSH1 0x40 MLOAD PUSH32 0xE2517D3F00000000000000000000000000000000000000000000000000000000 DUP2 MSTORE PUSH1 0x4 ADD PUSH2 0x12EC SWAP3 SWAP2 SWAP1 PUSH2 0x19D2 JUMP JUMPDEST PUSH1 0x40 MLOAD DUP1 SWAP2 SUB SWAP1 REVERT JUMPDEST POP POP JUMP JUMPDEST PUSH0 DUP1 REVERT JUMPDEST PUSH0 PUSH32 0xFFFFFFFF00000000000000000000000000000000000000000000000000000000 DUP3 AND SWAP1 POP SWAP2 SWAP1 POP JUMP JUMPDEST PUSH2 0x1331 DUP2 PUSH2 0x12FD JUMP JUMPDEST DUP2 EQ PUSH2 0x133B JUMPI PUSH0 DUP1 REVERT JUMPDEST POP JUMP JUMPDEST PUSH0 DUP2 CALLDATALOAD SWAP1 POP PUSH2 0x134C DUP2 PUSH2 0x1328 JUMP JUMPDEST SWAP3 SWAP2 POP POP JUMP JUMPDEST PUSH0 PUSH1 0x20 DUP3 DUP5 SUB SLT ISZERO PUSH2 0x1367 JUMPI PUSH2 0x1366 PUSH2 0x12F9 JUMP JUMPDEST JUMPDEST PUSH0 PUSH2 0x1374 DUP5 DUP3 DUP6 ADD PUSH2 0x133E JUMP JUMPDEST SWAP2 POP POP SWAP3 SWAP2 POP POP JUMP JUMPDEST PUSH0 DUP2 ISZERO ISZERO SWAP1 POP SWAP2 SWAP1 POP JUMP JUMPDEST PUSH2 0x1391 DUP2 PUSH2 0x137D JUMP JUMPDEST DUP3 MSTORE POP POP JUMP JUMPDEST PUSH0 PUSH1 0x20 DUP3 ADD SWAP1 POP PUSH2 0x13AA PUSH0 DUP4 ADD DUP5 PUSH2 0x1388 JUMP JUMPDEST SWAP3 SWAP2 POP POP JUMP JUMPDEST PUSH0 DUP2 MLOAD SWAP1 POP SWAP2 SWAP1 POP JUMP JUMPDEST PUSH0 DUP3 DUP3 MSTORE PUSH1 0x20 DUP3 ADD SWAP1 POP SWAP3 SWAP2 POP POP JUMP JUMPDEST PUSH0 JUMPDEST DUP4 DUP2 LT ISZERO PUSH2 0x13E7 JUMPI DUP1 DUP3 ADD MLOAD DUP2 DUP5 ADD MSTORE PUSH1 0x20 DUP2 ADD SWAP1 POP PUSH2 0x13CC JUMP JUMPDEST PUSH0 DUP5 DUP5 ADD MSTORE POP POP POP POP JUMP JUMPDEST PUSH0 PUSH1 0x1F NOT PUSH1 0x1F DUP4 ADD AND SWAP1 POP SWAP2 SWAP1 POP JUMP JUMPDEST PUSH0 PUSH2 0x140C DUP3 PUSH2 0x13B0 JUMP JUMPDEST PUSH2 0x1416 DUP2 DUP6 PUSH2 0x13BA JUMP JUMPDEST SWAP4 POP PUSH2 0x1426 DUP2 DUP6 PUSH1 0x20 DUP7 ADD PUSH2 0x13CA JUMP JUMPDEST PUSH2 0x142F DUP2 PUSH2 0x13F2 JUMP JUMPDEST DUP5 ADD SWAP2 POP POP SWAP3 SWAP2 POP POP JUMP JUMPDEST PUSH0 PUSH1 0x20 DUP3 ADD SWAP1 POP DUP2 DUP2 SUB PUSH0 DUP4 ADD MSTORE PUSH2 0x1452 DUP2 DUP5 PUSH2 0x1402 JUMP JUMPDEST SWAP1 POP SWAP3 SWAP2 POP POP JUMP JUMPDEST PUSH0 PUSH20 0xFFFFFFFFFFFFFFFFFFFFFFFFFFFFFFFFFFFFFFFF DUP3 AND SWAP1 POP SWAP2 SWAP1 POP JUMP JUMPDEST PUSH0 PUSH2 0x1483 DUP3 PUSH2 0x145A JUMP JUMPDEST SWAP1 POP SWAP2 SWAP1 POP JUMP JUMPDEST PUSH2 0x1493 DUP2 PUSH2 0x1479 JUMP JUMPDEST DUP2 EQ PUSH2 0x149D JUMPI PUSH0 DUP1 REVERT JUMPDEST POP JUMP JUMPDEST PUSH0 DUP2 CALLDATALOAD SWAP1 POP PUSH2 0x14AE DUP2 PUSH2 0x148A JUMP JUMPDEST SWAP3 SWAP2 POP POP JUMP JUMPDEST PUSH0 DUP2 SWAP1 POP SWAP2 SWAP1 POP JUMP JUMPDEST PUSH2 0x14C6 DUP2 PUSH2 0x14B4 JUMP JUMPDEST DUP2 EQ PUSH2 0x14D0 JUMPI PUSH0 DUP1 REVERT JUMPDEST POP JUMP JUMPDEST PUSH0 DUP2 CALLDATALOAD SWAP1 POP PUSH2 0x14E1 DUP2 PUSH2 0x14BD JUMP JUMPDEST SWAP3 SWAP2 POP POP JUMP JUMPDEST PUSH0 DUP1 PUSH1 0x40 DUP4 DUP6 SUB SLT ISZERO PUSH2 0x14FD JUMPI PUSH2 0x14FC PUSH2 0x12F9 JUMP JUMPDEST JUMPDEST PUSH0 PUSH2 0x150A DUP6 DUP3 DUP7 ADD PUSH2 0x14A0 JUMP JUMPDEST SWAP3 POP POP PUSH1 0x20 PUSH2 0x151B DUP6 DUP3 DUP7 ADD PUSH2 0x14D3 JUMP JUMPDEST SWAP2 POP POP SWAP3 POP SWAP3 SWAP1 POP JUMP JUMPDEST PUSH2 0x152E DUP2 PUSH2 0x14B4 JUMP JUMPDEST DUP3 MSTORE POP POP JUMP JUMPDEST PUSH0 PUSH1 0x20 DUP3 ADD SWAP1 POP PUSH2 0x1547 PUSH0 DUP4 ADD DUP5 PUSH2 0x1525 JUMP JUMPDEST SWAP3 SWAP2 POP POP JUMP JUMPDEST PUSH0 DUP1 PUSH0 PUSH1 0x60 DUP5 DUP7 SUB SLT ISZERO PUSH2 0x1564 JUMPI PUSH2 0x1563 PUSH2 0x12F9 JUMP JUMPDEST JUMPDEST PUSH0 PUSH2 0x1571 DUP7 DUP3 DUP8 ADD PUSH2 0x14A0 JUMP JUMPDEST SWAP4 POP POP PUSH1 0x20 PUSH2 0x1582 DUP7 DUP3 DUP8 ADD PUSH2 0x14A0 JUMP JUMPDEST SWAP3 POP POP PUSH1 0x40 PUSH2 0x1593 DUP7 DUP3 DUP8 ADD PUSH2 0x14D3 JUMP JUMPDEST SWAP2 POP POP SWAP3 POP SWAP3 POP SWAP3 JUMP JUMPDEST PUSH0 DUP2 SWAP1 POP SWAP2 SWAP1 POP JUMP JUMPDEST PUSH2 0x15AF DUP2 PUSH2 0x159D JUMP JUMPDEST DUP2 EQ PUSH2 0x15B9 JUMPI PUSH0 DUP1 REVERT JUMPDEST POP JUMP JUMPDEST PUSH0 DUP2 CALLDATALOAD SWAP1 POP PUSH2 0x15CA DUP2 PUSH2 0x15A6 JUMP JUMPDEST SWAP3 SWAP2 POP POP JUMP JUMPDEST PUSH0 PUSH1 0x20 DUP3 DUP5 SUB SLT ISZERO PUSH2 0x15E5 JUMPI PUSH2 0x15E4 PUSH2 0x12F9 JUMP JUMPDEST JUMPDEST PUSH0 PUSH2 0x15F2 DUP5 DUP3 DUP6 ADD PUSH2 0x15BC JUMP JUMPDEST SWAP2 POP POP SWAP3 SWAP2 POP POP JUMP JUMPDEST PUSH2 0x1604 DUP2 PUSH2 0x159D JUMP JUMPDEST DUP3 MSTORE POP POP JUMP JUMPDEST PUSH0 PUSH1 0x20 DUP3 ADD SWAP1 POP PUSH2 0x161D PUSH0 DUP4 ADD DUP5 PUSH2 0x15FB JUMP JUMPDEST SWAP3 SWAP2 POP POP JUMP JUMPDEST PUSH0 DUP1 PUSH1 0x40 DUP4 DUP6 SUB SLT ISZERO PUSH2 0x1639 JUMPI PUSH2 0x1638 PUSH2 0x12F9 JUMP JUMPDEST JUMPDEST PUSH0 PUSH2 0x1646 DUP6 DUP3 DUP7 ADD PUSH2 0x15BC JUMP JUMPDEST SWAP3 POP POP PUSH1 0x20 PUSH2 0x1657 DUP6 DUP3 DUP7 ADD PUSH2 0x14A0 JUMP JUMPDEST SWAP2 POP POP SWAP3 POP SWAP3 SWAP1 POP JUMP JUMPDEST PUSH0 PUSH1 0xFF DUP3 AND SWAP1 POP SWAP2 SWAP1 POP JUMP JUMPDEST PUSH2 0x1676 DUP2 PUSH2 0x1661 JUMP JUMPDEST DUP3 MSTORE POP POP JUMP JUMPDEST PUSH0 PUSH1 0x20 DUP3 ADD SWAP1 POP PUSH2 0x168F PUSH0 DUP4 ADD DUP5 PUSH2 0x166D JUMP JUMPDEST SWAP3 SWAP2 POP POP JUMP JUMPDEST PUSH0 PUSH1 0x20 DUP3 DUP5 SUB SLT ISZERO PUSH2 0x16AA JUMPI PUSH2 0x16A9 PUSH2 0x12F9 JUMP JUMPDEST JUMPDEST PUSH0 PUSH2 0x16B7 DUP5 DUP3 DUP6 ADD PUSH2 0x14A0 JUMP JUMPDEST SWAP2 POP POP SWAP3 SWAP2 POP POP JUMP JUMPDEST PUSH0 DUP1 PUSH1 0x40 DUP4 DUP6 SUB SLT ISZERO PUSH2 0x16D6 JUMPI PUSH2 0x16D5 PUSH2 0x12F9 JUMP JUMPDEST JUMPDEST PUSH0 PUSH2 0x16E3 DUP6 DUP3 DUP7 ADD PUSH2 0x14A0 JUMP JUMPDEST SWAP3 POP POP PUSH1 0x20 PUSH2 0x16F4 DUP6 DUP3 DUP7 ADD PUSH2 0x14A0 JUMP JUMPDEST SWAP2 POP POP SWAP3 POP SWAP3 SWAP1 POP JUMP JUMPDEST PUSH32 0x4E487B7100000000000000000000000000000000000000000000000000000000 PUSH0 MSTORE PUSH1 0x22 PUSH1 0x4 MSTORE PUSH1 0x24 PUSH0 REVERT JUMPDEST PUSH0 PUSH1 0x2 DUP3 DIV SWAP1 POP PUSH1 0x1 DUP3 AND DUP1 PUSH2 0x1742 JUMPI PUSH1 0x7F DUP3 AND SWAP2 POP JUMPDEST PUSH1 0x20 DUP3 LT DUP2 SUB PUSH2 0x1755 JUMPI PUSH2 0x1754 PUSH2 0x16FE JUMP JUMPDEST JUMPDEST POP SWAP2 SWAP1 POP JUMP JUMPDEST PUSH32 0x4E487B7100000000000000000000000000000000000000000000000000000000 PUSH0 MSTORE PUSH1 0x11 PUSH1 0x4 MSTORE PUSH1 0x24 PUSH0 REVERT JUMPDEST PUSH0 DUP2 PUSH1 0x1 SHR SWAP1 POP SWAP2 SWAP1 POP JUMP JUMPDEST PUSH0 DUP1 DUP3 SWAP2 POP DUP4 SWAP1 POP JUMPDEST PUSH1 0x1 DUP6 GT ISZERO PUSH2 0x17DD JUMPI DUP1 DUP7 DIV DUP2 GT ISZERO PUSH2 0x17B9 JUMPI PUSH2 0x17B8 PUSH2 0x175B JUMP JUMPDEST JUMPDEST PUSH1 0x1 DUP6 AND ISZERO PUSH2 0x17C8 JUMPI DUP1 DUP3 MUL SWAP2 POP JUMPDEST DUP1 DUP2 MUL SWAP1 POP PUSH2 0x17D6 DUP6 PUSH2 0x1788 JUMP JUMPDEST SWAP5 POP PUSH2 0x179D JUMP JUMPDEST SWAP5 POP SWAP5 SWAP3 POP POP POP JUMP JUMPDEST PUSH0 DUP3 PUSH2 0x17F5 JUMPI PUSH1 0x1 SWAP1 POP PUSH2 0x18B0 JUMP JUMPDEST DUP2 PUSH2 0x1802 JUMPI PUSH0 SWAP1 POP PUSH2 0x18B0 JUMP JUMPDEST DUP2 PUSH1 0x1 DUP2 EQ PUSH2 0x1818 JUMPI PUSH1 0x2 DUP2 EQ PUSH2 0x1822 JUMPI PUSH2 0x1851 JUMP JUMPDEST PUSH1 0x1 SWAP2 POP POP PUSH2 0x18B0 JUMP JUMPDEST PUSH1 0xFF DUP5 GT ISZERO PUSH2 0x1834 JUMPI PUSH2 0x1833 PUSH2 0x175B JUMP JUMPDEST JUMPDEST DUP4 PUSH1 0x2 EXP SWAP2 POP DUP5 DUP3 GT ISZERO PUSH2 0x184B JUMPI PUSH2 0x184A PUSH2 0x175B JUMP JUMPDEST JUMPDEST POP PUSH2 0x18B0 JUMP JUMPDEST POP PUSH1 0x20 DUP4 LT PUSH2 0x133 DUP4 LT AND PUSH1 0x4E DUP5 LT PUSH1 0xB DUP5 LT AND OR ISZERO PUSH2 0x1886 JUMPI DUP3 DUP3 EXP SWAP1 POP DUP4 DUP2 GT ISZERO PUSH2 0x1881 JUMPI PUSH2 0x1880 PUSH2 0x175B JUMP JUMPDEST JUMPDEST PUSH2 0x18B0 JUMP JUMPDEST PUSH2 0x1893 DUP5 DUP5 DUP5 PUSH1 0x1 PUSH2 0x1794 JUMP JUMPDEST SWAP3 POP SWAP1 POP DUP2 DUP5 DIV DUP2 GT ISZERO PUSH2 0x18AA JUMPI PUSH2 0x18A9 PUSH2 0x175B JUMP JUMPDEST JUMPDEST DUP2 DUP2 MUL SWAP1 POP JUMPDEST SWAP4 SWAP3 POP POP POP JUMP JUMPDEST PUSH0 PUSH2 0x18C1 DUP3 PUSH2 0x14B4 JUMP JUMPDEST SWAP2 POP PUSH2 0x18CC DUP4 PUSH2 0x1661 JUMP JUMPDEST SWAP3 POP PUSH2 0x18F9 PUSH32 0xFFFFFFFFFFFFFFFFFFFFFFFFFFFFFFFFFFFFFFFFFFFFFFFFFFFFFFFFFFFFFFFF DUP5 DUP5 PUSH2 0x17E6 JUMP JUMPDEST SWAP1 POP SWAP3 SWAP2 POP POP JUMP JUMPDEST PUSH0 PUSH2 0x190B DUP3 PUSH2 0x14B4 JUMP JUMPDEST SWAP2 POP PUSH2 0x1916 DUP4 PUSH2 0x14B4 JUMP JUMPDEST SWAP3 POP DUP3 DUP3 MUL PUSH2 0x1924 DUP2 PUSH2 0x14B4 JUMP JUMPDEST SWAP2 POP DUP3 DUP3 DIV DUP5 EQ DUP4 ISZERO OR PUSH2 0x193B JUMPI PUSH2 0x193A PUSH2 0x175B JUMP JUMPDEST JUMPDEST POP SWAP3 SWAP2 POP POP JUMP JUMPDEST PUSH2 0x194B DUP2 PUSH2 0x1479 JUMP JUMPDEST DUP3 MSTORE POP POP JUMP JUMPDEST PUSH0 PUSH1 0x60 DUP3 ADD SWAP1 POP PUSH2 0x1964 PUSH0 DUP4 ADD DUP7 PUSH2 0x1942 JUMP JUMPDEST PUSH2 0x1971 PUSH1 0x20 DUP4 ADD DUP6 PUSH2 0x1525 JUMP JUMPDEST PUSH2 0x197E PUSH1 0x40 DUP4 ADD DUP5 PUSH2 0x1525 JUMP JUMPDEST SWAP5 SWAP4 POP POP POP POP JUMP JUMPDEST PUSH0 PUSH1 0x20 DUP3 ADD SWAP1 POP PUSH2 0x1999 PUSH0 DUP4 ADD DUP5 PUSH2 0x1942 JUMP JUMPDEST SWAP3 SWAP2 POP POP JUMP JUMPDEST PUSH0 PUSH2 0x19A9 DUP3 PUSH2 0x14B4 JUMP JUMPDEST SWAP2 POP PUSH2 0x19B4 DUP4 PUSH2 0x14B4 JUMP JUMPDEST SWAP3 POP DUP3 DUP3 ADD SWAP1 POP DUP1 DUP3 GT ISZERO PUSH2 0x19CC JUMPI PUSH2 0x19CB PUSH2 0x175B JUMP JUMPDEST JUMPDEST SWAP3 SWAP2 POP POP JUMP JUMPDEST PUSH0 PUSH1 0x40 DUP3 ADD SWAP1 POP PUSH2 0x19E5 PUSH0 DUP4 ADD DUP6 PUSH2 0x1942 JUMP JUMPDEST PUSH2 0x19F2 PUSH1 0x20 DUP4 ADD DUP5 PUSH2 0x15FB JUMP JUMPDEST SWAP4 SWAP3 POP POP POP JUMP INVALID LOG2 PUSH5 0x6970667358 0x22 SLT KECCAK256 0xE3 SWAP10 SWAP8 BLOCKHASH 0x2A BYTE SWAP6 PUSH6 0x9D6F4F7D4115 LT 0xF6 0xF ADDMOD BASEFEE 0xD3 OR SWAP12 PC 0xCA 0xD9 GASLIMIT EXTCODECOPY DUP6 KECCAK256 SWAP13 RETURNDATASIZE 0xE1 PUSH5 0x736F6C6343 STOP ADDMOD EQ STOP CALLER "
		},
		"gasEstimates": {
			"creation": {
				"codeDepositCost": "1340600",
				"executionCost": "infinite",
				"totalCost": "infinite"
			},
			"external": {
				"DEFAULT_ADMIN_ROLE()": "352",
				"MINTER_ROLE()": "391",
				"allowance(address,address)": "infinite",
				"approve(address,uint256)": "infinite",
				"balanceOf(address)": "2874",
				"buyOneCoffe()": "infinite",
				"buyOneCoffeFrom(address)": "infinite",
				"decimals()": "405",
				"getRoleAdmin(bytes32)": "infinite",
				"grantRole(bytes32,address)": "infinite",
				"hasRole(bytes32,address)": "3211",
				"mint(address,uint256)": "infinite",
				"name()": "infinite",
				"renounceRole(bytes32,address)": "infinite",
				"revokeRole(bytes32,address)": "infinite",
				"supportsInterface(bytes4)": "741",
				"symbol()": "infinite",
				"totalSupply()": "2522",
				"transfer(address,uint256)": "infinite",
				"transferFrom(address,address,uint256)": "infinite"
			}
		},
		"methodIdentifiers": {
			"DEFAULT_ADMIN_ROLE()": "a217fddf",
			"MINTER_ROLE()": "d5391393",
			"allowance(address,address)": "dd62ed3e",
			"approve(address,uint256)": "095ea7b3",
			"balanceOf(address)": "70a08231",
			"buyOneCoffe()": "3fb1338c",
			"buyOneCoffeFrom(address)": "779eb56b",
			"decimals()": "313ce567",
			"getRoleAdmin(bytes32)": "248a9ca3",
			"grantRole(bytes32,address)": "2f2ff15d",
			"hasRole(bytes32,address)": "91d14854",
			"mint(address,uint256)": "40c10f19",
			"name()": "06fdde03",
			"renounceRole(bytes32,address)": "36568abe",
			"revokeRole(bytes32,address)": "d547741f",
			"supportsInterface(bytes4)": "01ffc9a7",
			"symbol()": "95d89b41",
			"totalSupply()": "18160ddd",
			"transfer(address,uint256)": "a9059cbb",
			"transferFrom(address,address,uint256)": "23b872dd"
		}
	},
	"abi": [
		{
			"inputs": [
				{
					"internalType": "address",
					"name": "defaultAdmin",
					"type": "address"
				},
				{
					"internalType": "address",
					"name": "minter",
					"type": "address"
				}
			],
			"stateMutability": "nonpayable",
			"type": "constructor"
		},
		{
			"inputs": [],
			"name": "AccessControlBadConfirmation",
			"type": "error"
		},
		{
			"inputs": [
				{
					"internalType": "address",
					"name": "account",
					"type": "address"
				},
				{
					"internalType": "bytes32",
					"name": "neededRole",
					"type": "bytes32"
				}
			],
			"name": "AccessControlUnauthorizedAccount",
			"type": "error"
		},
		{
			"inputs": [
				{
					"internalType": "address",
					"name": "spender",
					"type": "address"
				},
				{
					"internalType": "uint256",
					"name": "allowance",
					"type": "uint256"
				},
				{
					"internalType": "uint256",
					"name": "needed",
					"type": "uint256"
				}
			],
			"name": "ERC20InsufficientAllowance",
			"type": "error"
		},
		{
			"inputs": [
				{
					"internalType": "address",
					"name": "sender",
					"type": "address"
				},
				{
					"internalType": "uint256",
					"name": "balance",
					"type": "uint256"
				},
				{
					"internalType": "uint256",
					"name": "needed",
					"type": "uint256"
				}
			],
			"name": "ERC20InsufficientBalance",
			"type": "error"
		},
		{
			"inputs": [
				{
					"internalType": "address",
					"name": "approver",
					"type": "address"
				}
			],
			"name": "ERC20InvalidApprover",
			"type": "error"
		},
		{
			"inputs": [
				{
					"internalType": "address",
					"name": "receiver",
					"type": "address"
				}
			],
			"name": "ERC20InvalidReceiver",
			"type": "error"
		},
		{
			"inputs": [
				{
					"internalType": "address",
					"name": "sender",
					"type": "address"
				}
			],
			"name": "ERC20InvalidSender",
			"type": "error"
		},
		{
			"inputs": [
				{
					"internalType": "address",
					"name": "spender",
					"type": "address"
				}
			],
			"name": "ERC20InvalidSpender",
			"type": "error"
		},
		{
			"anonymous": false,
			"inputs": [
				{
					"indexed": true,
					"internalType": "address",
					"name": "owner",
					"type": "address"
				},
				{
					"indexed": true,
					"internalType": "address",
					"name": "spender",
					"type": "address"
				},
				{
					"indexed": false,
					"internalType": "uint256",
					"name": "value",
					"type": "uint256"
				}
			],
			"name": "Approval",
			"type": "event"
		},
		{
			"anonymous": false,
			"inputs": [
				{
					"indexed": true,
					"internalType": "address",
					"name": "receiver",
					"type": "address"
				},
				{
					"indexed": true,
					"internalType": "address",
					"name": "buyer",
					"type": "address"
				}
			],
			"name": "CoffePurchased",
			"type": "event"
		},
		{
			"anonymous": false,
			"inputs": [
				{
					"indexed": true,
					"internalType": "bytes32",
					"name": "role",
					"type": "bytes32"
				},
				{
					"indexed": true,
					"internalType": "bytes32",
					"name": "previousAdminRole",
					"type": "bytes32"
				},
				{
					"indexed": true,
					"internalType": "bytes32",
					"name": "newAdminRole",
					"type": "bytes32"
				}
			],
			"name": "RoleAdminChanged",
			"type": "event"
		},
		{
			"anonymous": false,
			"inputs": [
				{
					"indexed": true,
					"internalType": "bytes32",
					"name": "role",
					"type": "bytes32"
				},
				{
					"indexed": true,
					"internalType": "address",
					"name": "account",
					"type": "address"
				},
				{
					"indexed": true,
					"internalType": "address",
					"name": "sender",
					"type": "address"
				}
			],
			"name": "RoleGranted",
			"type": "event"
		},
		{
			"anonymous": false,
			"inputs": [
				{
					"indexed": true,
					"internalType": "bytes32",
					"name": "role",
					"type": "bytes32"
				},
				{
					"indexed": true,
					"internalType": "address",
					"name": "account",
					"type": "address"
				},
				{
					"indexed": true,
					"internalType": "address",
					"name": "sender",
					"type": "address"
				}
			],
			"name": "RoleRevoked",
			"type": "event"
		},
		{
			"anonymous": false,
			"inputs": [
				{
					"indexed": true,
					"internalType": "address",
					"name": "from",
					"type": "address"
				},
				{
					"indexed": true,
					"internalType": "address",
					"name": "to",
					"type": "address"
				},
				{
					"indexed": false,
					"internalType": "uint256",
					"name": "value",
					"type": "uint256"
				}
			],
			"name": "Transfer",
			"type": "event"
		},
		{
			"inputs": [],
			"name": "DEFAULT_ADMIN_ROLE",
			"outputs": [
				{
					"internalType": "bytes32",
					"name": "",
					"type": "bytes32"
				}
			],
			"stateMutability": "view",
			"type": "function"
		},
		{
			"inputs": [],
			"name": "MINTER_ROLE",
			"outputs": [
				{
					"internalType": "bytes32",
					"name": "",
					"type": "bytes32"
				}
			],
			"stateMutability": "view",
			"type": "function"
		},
		{
			"inputs": [
				{
					"internalType": "address",
					"name": "owner",
					"type": "address"
				},
				{
					"internalType": "address",
					"name": "spender",
					"type": "address"
				}
			],
			"name": "allowance",
			"outputs": [
				{
					"internalType": "uint256",
					"name": "",
					"type": "uint256"
				}
			],
			"stateMutability": "view",
			"type": "function"
		},
		{
			"inputs": [
				{
					"internalType": "address",
					"name": "spender",
					"type": "address"
				},
				{
					"internalType": "uint256",
					"name": "value",
					"type": "uint256"
				}
			],
			"name": "approve",
			"outputs": [
				{
					"internalType": "bool",
					"name": "",
					"type": "bool"
				}
			],
			"stateMutability": "nonpayable",
			"type": "function"
		},
		{
			"inputs": [
				{
					"internalType": "address",
					"name": "account",
					"type": "address"
				}
			],
			"name": "balanceOf",
			"outputs": [
				{
					"internalType": "uint256",
					"name": "",
					"type": "uint256"
				}
			],
			"stateMutability": "view",
			"type": "function"
		},
		{
			"inputs": [],
			"name": "buyOneCoffe",
			"outputs": [],
			"stateMutability": "nonpayable",
			"type": "function"
		},
		{
			"inputs": [
				{
					"internalType": "address",
					"name": "account",
					"type": "address"
				}
			],
			"name": "buyOneCoffeFrom",
			"outputs": [],
			"stateMutability": "nonpayable",
			"type": "function"
		},
		{
			"inputs": [],
			"name": "decimals",
			"outputs": [
				{
					"internalType": "uint8",
					"name": "",
					"type": "uint8"
				}
			],
			"stateMutability": "view",
			"type": "function"
		},
		{
			"inputs": [
				{
					"internalType": "bytes32",
					"name": "role",
					"type": "bytes32"
				}
			],
			"name": "getRoleAdmin",
			"outputs": [
				{
					"internalType": "bytes32",
					"name": "",
					"type": "bytes32"
				}
			],
			"stateMutability": "view",
			"type": "function"
		},
		{
			"inputs": [
				{
					"internalType": "bytes32",
					"name": "role",
					"type": "bytes32"
				},
				{
					"internalType": "address",
					"name": "account",
					"type": "address"
				}
			],
			"name": "grantRole",
			"outputs": [],
			"stateMutability": "nonpayable",
			"type": "function"
		},
		{
			"inputs": [
				{
					"internalType": "bytes32",
					"name": "role",
					"type": "bytes32"
				},
				{
					"internalType": "address",
					"name": "account",
					"type": "address"
				}
			],
			"name": "hasRole",
			"outputs": [
				{
					"internalType": "bool",
					"name": "",
					"type": "bool"
				}
			],
			"stateMutability": "view",
			"type": "function"
		},
		{
			"inputs": [
				{
					"internalType": "address",
					"name": "to",
					"type": "address"
				},
				{
					"internalType": "uint256",
					"name": "amount",
					"type": "uint256"
				}
			],
			"name": "mint",
			"outputs": [],
			"stateMutability": "nonpayable",
			"type": "function"
		},
		{
			"inputs": [],
			"name": "name",
			"outputs": [
				{
					"internalType": "string",
					"name": "",
					"type": "string"
				}
			],
			"stateMutability": "view",
			"type": "function"
		},
		{
			"inputs": [
				{
					"internalType": "bytes32",
					"name": "role",
					"type": "bytes32"
				},
				{
					"internalType": "address",
					"name": "callerConfirmation",
					"type": "address"
				}
			],
			"name": "renounceRole",
			"outputs": [],
			"stateMutability": "nonpayable",
			"type": "function"
		},
		{
			"inputs": [
				{
					"internalType": "bytes32",
					"name": "role",
					"type": "bytes32"
				},
				{
					"internalType": "address",
					"name": "account",
					"type": "address"
				}
			],
			"name": "revokeRole",
			"outputs": [],
			"stateMutability": "nonpayable",
			"type": "function"
		},
		{
			"inputs": [
				{
					"internalType": "bytes4",
					"name": "interfaceId",
					"type": "bytes4"
				}
			],
			"name": "supportsInterface",
			"outputs": [
				{
					"internalType": "bool",
					"name": "",
					"type": "bool"
				}
			],
			"stateMutability": "view",
			"type": "function"
		},
		{
			"inputs": [],
			"name": "symbol",
			"outputs": [
				{
					"internalType": "string",
					"name": "",
					"type": "string"
				}
			],
			"stateMutability": "view",
			"type": "function"
		},
		{
			"inputs": [],
			"name": "totalSupply",
			"outputs": [
				{
					"internalType": "uint256",
					"name": "",
					"type": "uint256"
				}
			],
			"stateMutability": "view",
			"type": "function"
		},
		{
			"inputs": [
				{
					"internalType": "address",
					"name": "to",
					"type": "address"
				},
				{
					"internalType": "uint256",
					"name": "value",
					"type": "uint256"
				}
			],
			"name": "transfer",
			"outputs": [
				{
					"internalType": "bool",
					"name": "",
					"type": "bool"
				}
			],
			"stateMutability": "nonpayable",
			"type": "function"
		},
		{
			"inputs": [
				{
					"internalType": "address",
					"name": "from",
					"type": "address"
				},
				{
					"internalType": "address",
					"name": "to",
					"type": "address"
				},
				{
					"internalType": "uint256",
					"name": "value",
					"type": "uint256"
				}
			],
			"name": "transferFrom",
			"outputs": [
				{
					"internalType": "bool",
					"name": "",
					"type": "bool"
				}
			],
			"stateMutability": "nonpayable",
			"type": "function"
		}
	]
}